:100000000C9461100C9492100C9492100C94921019
:100010000C9492100C9492100C9492100C949210D8
:100020000C9492100C9492100C9492100C949210C8
:100030000C9492100C9492100C9492100C949210B8
:100040000C9492100C9443680C9492100C9492109F
:100050000C9492100C9492100C9401370C945F73D2
:100060000C9492100C94621C0C94581C0C949210DA
:100070000C9492100C9492100C9492100C94921078
:100080000C94BA140C9492100C9492100C9492103C
:100090000C9492100C9492100C9492100C94921058
:1000A0000C9492100C9492100C948D140C94921049
:1000B0000C9492100C9492100C9492100C94601466
:1000C0000C9492100C9492100C9492100C94921028
:1000D0000C9492100C9492100C9492100C94921018
:1000E0000C949210F76EFA6EE96EED6EF36E316F4E
:1000F000FE6E026F086F0C6F106F166F1A6F1E6F17
:10010000316F246F286F2C6F7B72807285728F72B3
:1001100099721273A372AB72B372BD72C772D1724D
:10012000E072EA721273F472FE720873084AD73BE7
:100130003BCE016E84BCBFFDC12F3D6C74319ABDB6
:1001400056833DDA3D00C77F11BED9E4BB4C3E91DA
:100150006BAAAABE000000803F05A84CCDB2D44EC9
:10016000B93836A9020C50B9918688083CA6AAAACB
:100170002ABE000000803F004E414E494E4954596E
:10018000494E46CDCCCC3D0AD7233C17B7D1387762
:10019000CC2B329595E6241FB14F0A000020410078
:1001A00000C84200401C4620BCBE4CCA1B0E5AAEC2
:1001B000C59D74434F4D4D554E49434154494F4E93
:1001C0000044525952554E004552524F5253004925
:1001D0004E464F004543484F0047322F4733206279
:1001E000616420706172616D65746572730A0048A4
:1001F0006F6D652058592066697273740A00205A21
:100200003A200020593A200042656420583A2000E4
:100210004D65736820706F696E742063616E6E6FD8
:1002200074206265207265736F6C7665640A0025C0
:1002300069730025696D202569730025696820258B
:10024000696D20256973002569642025696820256A
:10025000696D202569730025697920256964202549
:1002600069682025696D20256973005072696E7474
:100270002074696D653A20006F666600D401CF0175
:10028000C801C101B30144454255473A004D3131DF
:10029000332053006F6B004348414D4245525F5439
:1002A000454D5045524154555245004D4F54494FCC
:1002B0004E5F4D4F44455300544845524D414C5FAD
:1002C00050524F54454354494F4E004155544F529C
:1002D00045504F52545F53445F535441545553005B
:1002E00050524F4D50545F535550504F525400454B
:1002F0004D455247454E43595F5041525345520078
:10030000434153455F4C494748545F42524947482F
:10031000544E45535300544F47474C455F4C494753
:1003200048545300534F4654574152455F504F571E
:100330004552004255494C445F50455243454E5446
:10034000004C4556454C494E475F44415441005A84
:100350005F50524F4245004155544F4C4556454C15
:10036000005052494E545F4A4F420050524F47523C
:10037000455353004155544F5245504F52545F54CA
:10038000454D5000564F4C554D455452494300453C
:100390004550524F4D0042494E4152595F46494CDB
:1003A000455F5452414E53464552005345524941D0
:1003B0004C5F584F4E5F584F4646004649524D5786
:1003C0004152455F4E414D453A4D61726C696E2018
:1003D0006275676669782D322E302E78202847693D
:1003E000746875622920534F555243455F434F440B
:1003F000455F55524C3A68747470733A2F2F676991
:10040000746875622E636F6D2F4D61726C696E46F4
:1004100069726D776172652F4D61726C696E2050E3
:10042000524F544F434F4C5F56455253494F4E3AEB
:10043000312E30204D414348494E455F5459504577
:100440003A5369646577696E646572205831204556
:10045000585452554445525F434F554E543A3120FB
:10046000555549443A63656465326132662D3431CD
:1004700061322D343734382D396231322D633535C0
:100480006336326633363766660A002F2F20002027
:10049000466C6F773A200050726F746563746564C0
:1004A0002050696E0A00206F7574206F662072619B
:1004B0006E67650A00536572766F20003A2000204F
:1004C000536572766F200050726F6265205A204F1C
:1004D00066667365743A2000496E76616C696420C3
:1004E00065787472756465720A0020643A00206948
:1004F0003A0020703A0020643A0020693A002070E7
:100500003A0064697300656E0043290A0061626CF9
:10051000656420286D696E2074656D702000436FDE
:100520006C642065787472756465732061726520EF
:1005300000504944204175746F74756E6520666182
:10054000696C656421204261642065787472756409
:100550006572206E756D6265720A004D6573682064
:10056000706F696E742063616E6E6F7420626520B7
:100570007265736F6C7665640A004D3432312069A0
:100580006E636F727265637420706172616D657401
:1005900065722075736167650A00546F6F2066612C
:1005A000722066726F6D207265666572656E636536
:1005B00020706F696E740A00FFFFFF000000C0002A
:1005C00000A0C000000000454550524F4D204F4B49
:1005D0000A003F5A206F7574206F662072616E6743
:1005E0006520282D323020746F203230290A0050C7
:1005F000726F6265205A204F66667365743A2000F8
:10060000496E76616C696420657874727564657290
:100610000A006F6B00205A3A0020593A0020583ADD
:1006200000656E6473746F7073206869743A20009B
:100630004572726F722077726974696E6720746F89
:1006400020454550524F4D210A00363726033C3D88
:10065000380E2E303E1324221E1A1C1808440A0796
:10066000430809070001627573793A207061757358
:10067000656420666F7220696E7075740A00627519
:1006800073793A2070617573656420666F722075A6
:100690007365720A00627573793A2070726F6365D0
:1006A0007373696E670A004B494C4C206361757324
:1006B000656420627920746F6F206D7563682069AE
:1006C0006E6163746976652074696D65202D2063A1
:1006D000757272656E7420636F6D6D616E643A2021
:1006E000005072696E7465722068616C7465642E66
:1006F000206B696C6C28292063616C6C6564210A2D
:10070000005072696E7465722073746F70706564E6
:100710002064756520746F206572726F72732E206D
:1007200046697820746865206572726F7220616E08
:100730006420757365204D39393920746F207265D6
:1007400073746172742E202854656D7065726174C3
:100750007572652069732072657365742E20536508
:1007600074206974206166746572207265737461A7
:100770007274696E67290A002020506C616E6E6584
:100780007242756666657242797465733A2000201C
:1007900046726565204D656D6F72793A2000436F32
:1007A0006D70696C65643A204A756E20323520326E
:1007B0003031390A00207C20417574686F723A200C
:1007C0005374657665205761676720616B612043CC
:1007D0006452734B754C4C2068747470733A2F2FAD
:1007E00070726574656E6470727573612E636F2EBE
:1007F000756B0A00323031382D30312D3230002007
:100800004C61737420557064617465643A200062B1
:1008100075676669782D322E302E780A004D617228
:100820006C696E0020536F66747761726520526543
:100830007365740A00205761746368646F6720529F
:10084000657365740A002042726F776E206F75744D
:100850002052657365740A002045787465726E6174
:100860006C2052657365740A00506F77657255701D
:100870000A0073746172740A006563686F3A004518
:1008800072726F723A0042696C696E656172204CD7
:100890006576656C696E6720477269643A0A002460
:1008A000F4D43050C38E20C2A24017828B70111234
:1008B0007A910D816CD90AA861E108C75866076171
:1008C0005143061E4B5D05C145A7041A4111040999
:1008D0003D9803713931034036DB0265339102D410
:1008E000305402802E1D02632CEE01752AC501B022
:1008F00028A001102781018F2564012B244B01E0E2
:10090000223401AC211F018D200D01801FFC0084C9
:100910001EED00971DDF00B81CD200E61BC60020AC
:100920001BBC00641AB200B219A8000A19A0006A20
:10093000189900D117910040178B00B5168400312B
:10094000167E00B31579003A157300C7146F00586E
:10095000146A00EE1366008813630025135E00C757
:10096000125B006C12570015125400C11151007037
:10097000114F0021114B00D61049008D1047004641
:1009800010440002104200C00F4000800F3E0042A1
:100990000F3C00060F3B00CB0E3800930E37005C77
:1009A0000E3500270E3400F30D3200C10D310090DA
:1009B0000D3000600D2E00320D2D00050D2C00D9DC
:1009C0000C2B00AE0C2900850C29005C0C2700358F
:1009D0000C27000E0C2600E80B2400C40B2400A0FA
:1009E0000B23007D0B23005A0B2100390B2100182B
:1009F0000B2000F80A1F00D90A1E00BB0A1E009D2A
:100A00000A1D00800A1D00630A1C00470A1B002CF7
:100A10000A1B00110A1A00F7091A00DD091900C49F
:100A2000091900AB091900920917007B0918006326
:100A30000917004C09160036091600200916000A8D
:100A4000091500F5081500E0081400CC081400B8DA
:100A5000081400A4081400900813007D0812006B0D
:100A60000813005808120046081200340811002329
:100A70000811001208110001081100F0071000E031
:100A8000071000D0071000C0071000B0070F00A12A
:100A900007100091070E0083070F0074070F006511
:100AA000070E0057070E0049070E003B070D002EEA
:100AB000070E0020070D0013070D0006070D00F9B3
:100AC000060C00ED060D00E0060C00D4060C00C874
:100AD000060C00BC060C00B0060C00A4060B009926
:100AE000060C008D060B0082060B0077060B006CCF
:100AF000060B0061060A0057060B004C060A00426E
:100B0000060A0038060A002E060A0024060A001A01
:100B1000060A001006090007060A00FD050900F490
:100B2000050900EB050900E2050900D9050900D017
:100B3000050900C7050900BE050900B5050800AD97
:100B4000050800A50509009C050800940508008C0F
:100B5000050800840508007C050800740508006C81
:100B6000050700650508005D050700560508004EED
:100B70000507004705070040050800380507003154
:100B80000507002A050700230507001C05060016B7
:100B90000507000F0507000805060002050700FB12
:100BA000040600F5040700EE040600E8040600E26F
:100BB000040700DB040600D5040600CF040600C9C4
:100BC000040600C3040600BD040600B7040600B115
:100BD000040500AC040600A6040600A00405009B62
:100BE00004060095040500900406008A04050085AB
:100BF000040500800406007A0405007504050070F1
:100C00000405006B04050066040500610405005C32
:100C100004050057040500520405004D0405004872
:100C2000040500430405003E0404003A04050035B1
:100C3000040500300404002C0405002704040023EC
:100C40000405001E0404001A040400160405001123
:100C50000404000D04040009040500040404000059
:100C6000040400FC030400F8030400F4030400F08F
:100C7000030400EC030400E8030400E4030400E0C0
:100C8000030400DC030400D8030400D4030400D0F0
:100C9000030400CC030400C8030300C503030024BD
:100CA000F404D9201BC40C5C0E9804C4095F0265CF
:100CB000077101F405F900FB04B30048048700C183
:100CC0000369005803550003034500BE023A00843F
:100CD00002310053022A002902250004022000E408
:100CE000011C00C8011900AF01170098011400840D
:100CF000011300710110006101100051010E004349
:100D0000010D0036010B002B010B0020010B00151B
:100D10000109000C01090003010800FB000800F3B1
:100D2000000800EB000700E4000600DE000600D823
:100D3000000600D2000600CC000500C7000500C276
:100D4000000500BD000400B9000400B5000400B1B6
:100D5000000400AD000400A9000400A5000300A2E7
:100D60000003009F0004009B00030098000300950F
:100D700000020093000300900003008D0002008B2E
:100D80000003008800020086000200840003008146
:100D90000002007F0002007D0002007B000200795B
:100DA0000002007700010076000200740002007269
:100DB000000100710002006F0002006D0001006C74
:100DC0000002006A0001006900020067000100667D
:100DD0000001006500010064000200620001006182
:100DE000000100600001005F0002005D0001005C86
:100DF0000001005B0001005A000100590001005889
:100E00000001005700010056000100550001005488
:100E10000001005300000053000100520001005186
:100E2000000100500001004F0001004E0000004E84
:100E30000001004D0001004C0001004B0000004B80
:100E40000001004A0001004900010048000000487C
:100E50000001004700010046000000460001004577
:100E60000000004500010044000100430000004371
:100E7000000100420000004200010041000000416A
:100E8000000100400001003F0000003F0001003E63
:100E90000000003E0001003D0000003D0001003C5C
:100EA0000000003C0000003C0001003B0000003B53
:100EB0000001003A0000003A00010039000000394A
:100EC0000001003800000038000000380001003741
:100ED0000000003700010036000000360000003638
:100EE000000100350000003500000035000100342D
:100EF0000000003400000034000100330000003323
:100F00000000003300010032000000320000003217
:100F1000000100310000003100000031000100300C
:100F200000000030000000300001002F0000002F02
:100F30000000002F0000002F0001002E0000002EF6
:100F40000000002E0001002D0000002D0000002DEB
:100F50000000002D0001002C0000002C0000002CDF
:100F60000000002C0001002B0000002B0000002BD3
:100F70000000002B0001002A0000002A0000002AC7
:100F80000000002A000100290000002900000029BB
:100F900000000029000000290001002800000028AE
:100FA00000000028000000280000002800010027A1
:100FB0000000002700000027000000270000002795
:100FC0000001002600000026000000260000002688
:100FD000000000260001002500000025000000257B
:100FE000000000250000002500000025000100246D
:100FF0000000002400000024000000240000002461
:101000000001002300000023000000230000002353
:101010000000002300000023000000230001002244
:101020000000002200000022000000220000002238
:10103000000000220001002100000021000000212A
:10104000000000210000002100000021000000211C
:10105000000100200000002000000020000000200F
:101060000000002000000020000000200000002000
:101070000001001F0000001F0000001F0000001FF3
:101080000000001F0000001F0000001F0001001EE4
:101090000000001E0000001E0000001E00000039BD
:1010A0003000003325000087190000B00F0000DB7E
:1010B000080000BD040000740200003F0100002988
:1010C0000A002062797465733B20637263200053C9
:1010D000657474696E67732053746F726564202839
:1010E00000454550524F4D206461746173697A65C3
:1010F000206572726F722E0A00290A0020627974CC
:1011000065733B2063726320002073746F726564A3
:101110002073657474696E67732072657472696593
:10112000766564202800202863616C63756C6174A7
:10113000656429210A0020213D2000454550524F79
:101140004D20435243206D69736D61746368202D97
:10115000202873746F7265642920002053697A65B2
:101160003A2000496E6465783A2000204D61726C27
:10117000696E3D563637290A00454550524F4D207D
:1011800076657273696F6E206D69736D61746368E3
:101190002028454550524F4D3D004265642068650A
:1011A0006174696E67206661696C65640048656199
:1011B00074696E67206661696C656400424544200D
:1011C000544845524D414C2052554E4157415900CB
:1011D000546865726D616C2052756E61776179003B
:1011E00045312048656174696E67206661696C6588
:1011F000640048656174696E67206661696C656446
:1012000000453120544845524D414C2052554E41E5
:1012100057415900546865726D616C2052756E615A
:1012200077617900202D20496E76616C69642065B4
:1012300078747275646572206E756D6265722021B6
:101240000A0070012C0190012701B0012201C001A8
:101250001D01F00118011002130130020E0160029D
:10126000090190020401C002FF000003FA004003DC
:10127000F5008003F000D003EB002004E6007004CA
:10128000E100E004DC004005D700C005D2004006C4
:10129000CD00D006C8008007C3003008BE00F008AB
:1012A000B900C009B400B00AAF00B00BAA00D00C5E
:1012B000A500000EA000500F9B00C0109600501219
:1012C000910000148C00C0158700B0178200B0197F
:1012D0007D00D01B7800001E730040206E0090221D
:1012E0006900F024640040275F0090295A00E02B39
:1012F0005500102E500020304B0010324600E033D5
:10130000410090353C001037370070383200A0396A
:101310002D00B03A2800A03B2300603C1E00103D89
:101320001900903D1400103E0F00703E0A00C03EB0
:101330000500003F0000403FFBFF803FF6FFC03F3D
:10134000F1FF453120544845524D414C2052554EF5
:10135000415741590042454420544845524D414C63
:101360002052554E4157415900546865726D616C69
:101370002052756E61776179004531204572723A6D
:10138000204D415854454D50004572723A204D4110
:101390005854454D5020424544004D415854454D08
:1013A0005020747269676765726564004531204535
:1013B00072723A204D494E54454D50004572723A72
:1013C000204D494E54454D5020424544004D494E14
:1013D00054454D50207472696767657265640020DA
:1013E0002F002042403A0020403A0020573A002087
:1013F000573A00205A3A0020593A0020436F756E40
:101400007420583A0020453A00205A3A0020593AB0
:1014100000583A0020746F6F206C6F6E67206578FB
:1014200074727573696F6E2070726576656E74651F
:10143000640A0020636F6C64206578747275736948
:101440006F6E2070726576656E7465640A000000C8
:10145000704200007042000080415761726E696EF8
:10146000673A20486F6D696E672042756D70204441
:10147000697669736F72203C20310A000202040011
:1014800000A0400000A04000000040008099430000
:10149000009B430000C84300000001000000010061
:1014A000008000555555000000400033333300AA3A
:1014B000AA2A004992240000002000C7711C00994C
:1014C000991900D1451700555515003BB11300245B
:1014D00049120011111100000010000F0F0F00E35E
:1014E000380E0043790D00CCCC0C00C3300C00E862
:1014F000A20B0064210B00AAAA0A00703D0A009DFD
:10150000D80900427B090092240900DCD308008836
:101510008808001042080000000800F0C10700879A
:1015200087070075500700711C07003EEB0600A1FD
:10153000BC06006990060066660600703E06006103
:1015400018060017F4050074D105005BB00500B261
:10155000900500627205005555050078390500B800
:101560001E0500050505004EEC040087D40400A10B
:10157000BD040090A7040049920400C17D0400EE60
:10158000690400C7560400444404005C32040008A7
:1015900021040041100400000004003FF00300F8A3
:1015A000E0030026D20300C3C30300CCB503003A16
:1015B000A803000A9B0300388E0300C08103009F2C
:1015C000750300D0690300505E03001D530300340F
:1015D000480300913D03003333030016290300380C
:1015E0001F030097150300300C0300030303000BD7
:1015F000FA020049F10200BAE802005CE002002DA4
:10160000D802002DD0020059C80200B0C00200313B
:10161000B90200DAB10200AAAA0200A0A30200BC2B
:101620009C0200FA9502005C8F0200DF88020082B3
:10163000820200457C0200277602002770020043E8
:101640006A02007C640200D05E02003F590200C8BA
:1016500053020053544F502063616C6C65642062E8
:10166000656361757365206F6620424C546F7563C6
:1016700068206572726F72202D20726573746172BA
:10168000742077697468204D3939390A0053544FF2
:10169000502063616C6C656420626563617573657D
:1016A000206F6620424C546F756368206572726FBC
:1016B00072202D207265737461727420776974686A
:1016C000204D3939390A004F46460A0046616465A3
:1016D000204865696768742000426564204C65761F
:1016E000656C696E6720004661696C656420746F83
:1016F00020656E61626C6520426564204C6576658C
:101700006C696E670A00496E76616C6964206D656C
:1017100073682E0A00202844525952554E2900471A
:101720003239204175746F20426564204C657665BE
:101730006C696E67003F20284C2C522C462C4229A5
:10174000206F7574206F6620626F756E64732E0A49
:10175000003F2856296572626F7365206C65766557
:101760006C20697320696D706C61757369626C655A
:101770002028302D34292E0A00426164205A207618
:10178000616C75650A004E6F2062696C696E6561F7
:101790007220677269640A0020540020520041637D
:1017A00063656C65726174696F6E3A2050005741D1
:1017B000524E494E4721204C6F77205A204A65727D
:1017C0006B206D6179206C65616420746F20756E8B
:1017D00077616E746564207061757365732E0A009D
:1017E000204500205A00205900204D393220580051
:1017F0004F4646004F4E00205A0020590058002006
:10180000204D61783A2000205A00205900580020CD
:10181000204D696E3A2000536F667420656E6473C4
:10182000746F70733A200020496E76616C69642091
:10183000657874727564657220004361703A0022A5
:101840000A00656E7175657565696E6720220052C4
:101850006573656E643A20005072696E746572201B
:1018600073746F707065642064756520746F206593
:1018700072726F72732E20466978207468652065D5
:1018800072726F7220616E6420757365204D3939F4
:101890003920746F20726573746172742E2028541D
:1018A000656D70657261747572652069732072650B
:1018B0007365742E205365742069742061667465A5
:1018C000722072657374617274696E67290A004EC2
:1018D0006F20436865636B73756D2077697468204A
:1018E0006C696E65206E756D6265722C204C61733B
:1018F00074204C696E653A2000636865636B73758C
:101900006D206D69736D617463682C204C61737414
:10191000204C696E653A20004C696E65204E756DED
:10192000626572206973206E6F74204C617374203D
:101930004C696E65204E756D6265722B312C204CA2
:10194000617374204C696E653A20004D313130006E
:1019500000809843008098430000C843000000C006
:101960000000A0C00000000020746F6F206C6F6E3C
:101970006720657874727573696F6E207072657612
:10198000656E7465640A0020636F6C64206578740A
:10199000727573696F6E2070726576656E746564BA
:1019A0000A00FFFDFCFAF8F6F4F2F0EEECEAE9E7E3
:1019B000E5E3E1E0DEDCDAD9D7D5D4D2D0CFCDCBA8
:1019C000CAC8C7C5C3C2C0BFBDBCBAB9B7B6B4B335
:1019D000B2B0AFADACAAA9A8A6A5A4A2A1A09E9D95
:1019E0009C9A99989795949392908F8E8D8B8A89D3
:1019F00088878684838281807F7E7D7B7A797877F1
:101A0000767574737271706F6E6D6C6B6A696867EE
:101A1000666564636261605F5E5D5C5B5A595858DD
:101A20005756555453525150504F4E4D4C4B4A4AB5
:101A30004948474646454443424241403F3E3E3D79
:101A40003C3B3B3A3938383736353534333232312E
:101A500030302F2E2E2D2C2B2B2A292928272726D4
:101A6000252524232322212120201F1E1E1D1C1C6E
:101A70001B1B1A19191818171616151514131312FB
:101A8000121111100F0F0E0E0D0D0C0C0B0A0A097E
:101A900009080807070606050504040303020201F6
:101AA000000000002100240027002A002D00300043
:101AB000330001010000040107010A0100002200B7
:101AC000250028002B002E00310034000201000008
:101AD000050108010B010000200023002600290059
:101AE0002C002F0032000001000003010601090153
:101AF00005050505070508080808020202020A0A8A
:101B000008080404040401010101010101010303A7
:101B1000030303030303040707070C0C0C0C0C0C52
:101B20000C0C0202020206060606060606060B0B4F
:101B30000B0B0B0B0B0B0102102020080810204090
:101B40001020408002010201080402010102040881
:101B5000102040808040201008040201800402010F
:101B60008040201008040201080402010102040858
:101B700010204080010204081020408000000A0B61
:101B800002090C0D0E08070304010000000000000C
:101B90000000000000000000000000000000000045
:101BA0000000000000000000121110000000000002
:101BB0000000000000000000000000000000000025
:101BC000000050726F62696E67206661696C6564BF
:101BD0000A0048617264636F6465642044656661ED
:101BE000756C742053657474696E6773204C6F61F3
:101BF0006465640A00D0070000D00700006400009C
:101C000000102700000000964300009643000048A3
:101C10004200002042F43DA042F43DA04296E3C7BA
:101C2000430080DE433A0A0020204D383531205AE7
:101C3000005A2D50726F6265204F6666736574009E
:101C400020440020490020204D3330342050002013
:101C5000440020490020204D3330312050005049AD
:101C6000442073657474696E67733A0A00204A00F1
:101C700020204732392057204900205A0020204D8B
:101C80003432302053004175746F20426564204C1B
:101C90006576656C696E673A0A00205A0020590023
:101CA00020204D323036205800486F6D65206F6619
:101CB000667365743A0A00204500205A00205900D6
:101CC00020580020540020530020204D3230352071
:101CD000420020453C6D61785F655F6A65726B3ECE
:101CE0000020583C6D61785F785F6A65726B3E20BA
:101CF000593C6D61785F795F6A65726B3E205A3C32
:101D00006D61785F7A5F6A65726B3E0041647661EF
:101D10006E6365643A20423C6D696E5F7365676D02
:101D2000656E745F74696D655F75733E20533C6DBD
:101D3000696E5F66656564726174653E20543C6DD2
:101D4000696E5F74726176656C5F66656564726109
:101D500074653E0020540020520020204D32303463
:101D6000205000416363656C65726174696F6E2019
:101D700028756E6974732F7332293A20503C707243
:101D8000696E745F616363656C3E20523C7265747A
:101D9000726163745F616363656C3E20543C74726E
:101DA0006176656C5F616363656C3E0A0020450087
:101DB000205A0020590020204D3230312058004D4B
:101DC0006178696D756D20416363656C65726174DE
:101DD000696F6E2028756E6974732F7332293A0A01
:101DE00000204500205A0020590020204D32303379
:101DF0002058004D6178696D756D20666565647267
:101E0000617465732028756E6974732F73293A0A9B
:101E10000053746570732070657220756E69743A32
:101E20000A0020204D3230302044300A0020204D5E
:101E30003230302044002044697361626C65640A6A
:101E40000046696C616D656E742073657474696EAB
:101E500067733A0020286D6D290020204732312019
:101E60002020203B20556E69747320696E206D6DB3
:101E700000486F6D696E67206661696C6564006F0C
:101E800070656E00545249474745524544003A2018
:101E9000007A5F6D696E00795F6D696E00785F6DC5
:101EA000696E005265706F7274696E6720656E644A
:101EB00073746F70207374617475730A00236465A2
:101EC00066696E652044454641554C545F0000628A
:101ED0006564004B6420004B6920004B702000506B
:101EE0004944204175746F74756E652066696E692A
:101EF00073686564212050757420746865206C6176
:101F00007374204B702C204B6920616E64204B64ED
:101F100020636F6E7374616E74732066726F6D20D0
:101F200062656C6F7720696E746F20436F6E6669AF
:101F30006775726174696F6E2E680A00504944209B
:101F40004175746F74756E65206661696C65642196
:101F50002074696D656F75740A00453120544845D9
:101F6000524D414C2052554E415741590042454433
:101F700020544845524D414C2052554E41574159ED
:101F800000546865726D616C2052756E617761797D
:101F90000045312048656174696E67206661696C2F
:101FA0006564004265642068656174696E672066D7
:101FB00061696C65640048656174696E672066617B
:101FC000696C656400504944204175746F74756E86
:101FD00065206661696C6564212054656D70657269
:101FE000617475726520746F6F20686967680A0094
:101FF000204B643A2000204B693A2000204B703A75
:1020000020000A20436C61737369632050494420A7
:102010000A002054753A2000204B753A2000206DAC
:1020200061783A2000206D696E3A200020643A20E1
:102030000020626961733A20005049442041757460
:102040006F74756E652073746172740A0050494430
:10205000204175746F74756E65206661696C656486
:10206000212054656D706572617475726520746F9E
:102070006F20686967680A0000626564002C20733D
:10208000797374656D2073746F7070656421204876
:1020900065617465725F49443A2000206669727315
:1020A000740A00486F6D652000220A00556E6B6E41
:1020B0006F776E20636F6D6D616E643A2022000051
:1020C000F19511241FBECFEFD1E2DEBFCDBF00E0FE
:1020D0000CBF13E0A0E0B2E0ECE5F3E401E00BBFDD
:1020E00002C007900D92AA33B107D9F72FE0AAE3F7
:1020F000B3E001C01D92AC30B207E1F710E1C1E6D8
:10210000D0E100E006C021970109802FFE010E9466
:1021100063A1C036D10780E00807A9F70E944C7F71
:102120000C94ACA10C940000009781F410929000E4
:1021300082E0809391001092950010929400C19AD1
:1021400080917100826080937100089581309105C3
:1021500069F41092A00082E08093A1001092A50083
:102160001092A40089BB809372000895029761F4D5
:102170001092200182E0809321011092250110929B
:1021800024018ABB809373000895CF92DF92EF926F
:10219000FF920F931F93CF93DF936C018B017A0112
:1021A000EC01C552DA4F888187FF04C0FB01118220
:1021B000108224C02CE02C9DC0012D9D900D112477
:1021C0002881AC01420F511D27FD5A952091D90E4F
:1021D00030E04217530794F42881AC01420F511D9F
:1021E00027FD5A959A01FA01EE0FFF1F2E0F3F1F90
:1021F000F901E359F14F208126FD19C088818F5FD5
:1022000088832CE02C9DC0012D9D900D11242881E8
:10221000AC01420F511D27FD5A952091D90E30E097
:1022200042175307BCF428812C3044F113C0288195
:10223000820F911D27FD9A95FC01EE0FFF1F8E0F57
:102240009F1FFC01E359F14F808160E08F730E9472
:10225000EA71D4CFF80180819181049680349C4941
:1022600018F480E49CE904C0F8018081918104960F
:10227000F701918380838FEF888345C0F801408107
:1022800051812881BC01620F711D27FD7A959B0148
:10229000FB01EE0FFF1F2E0F3F1FF901E359F14F16
:1022A00021813281240F351FF7013183208328815A
:1022B000AC01420F511D27FD5A959A01FA01EE0F0C
:1022C000FF1F2E0F3F1FF901E359F14F208126FF19
:1022D0001AC02881820F911D27FD9A95FC01EE0FEF
:1022E000FF1F8E0F9F1FFC01E359F14F808161E0BA
:1022F0008F73DF91CF911F910F91FF90EF90DF903F
:10230000CF900C94EA71DF91CF911F910F91FF90C4
:10231000EF90DF90CF9008952F923F924F925F926F
:102320006F927F928F929F92AF92BF92CF92DF92E5
:10233000EF92FF920F931F93CF93DF93CDB7DEB74A
:102340002E970FB6F894DEBF0FBECDBFF82EE62E47
:10235000042FA22E282F30E03C872B87462F50E0F9
:102360005A87498715E0129FC001139F900D1124D1
:102370009E878D87FA01E80FF91FEE0FFF1FEE0F02
:10238000FF1FE453FC4F60817181828193819B0127
:10239000AC010E9427A1882309F436C1F00E6E2DEE
:1023A0006A0D1F9D40011124E985FA85E80DF91D8C
:1023B000EE0FFF1FEE0FFF1FE453FC4FB080C180F4
:1023C000D280E380F00E1F9DA0011124E985FA85DB
:1023D000E40FF51FEE0FFF1FEE0FFF1FE453FC4F3E
:1023E000F080018112817380E62FF0E0AD85BE851B
:1023F000AE0FBF1FAA0FBB1FAA0FBB1FA453BC4F1A
:102400006C9011965C90119712964C9012971396BF
:102410003C906A0D70E0AD85BE85A60FB71FAA0F70
:10242000BB1FAA0FBB1FA453BC4FBE87AD872C9008
:102430001196AC9011971296BC91B983AD85BE856B
:102440001396BC91BA83E80DF91DEE0FFF1FEE0F36
:10245000FF1FE453FC4F9080818022812B833381C6
:102460003C83FA01E60FF71FEE0FFF1FEE0FFF1F71
:10247000E453FC4F40814D8351815E8382818F8381
:10248000938198872F2D302F412F572D6F2D702F2F
:10249000812F972D0E9427A1882321F0F12C00E0A5
:1024A00010E0712C2B2D3C2D4D2D5E2D6B2D7C2D98
:1024B0008D2D9E2D0E9427A1882319F0BF2C680125
:1024C000E72C222D3A2D49815A81622D7A2D89815E
:1024D0009A810E9427A1882321F0212CA12C198206
:1024E0001A82262D352D442D532D662D752D842DC4
:1024F000932D0E9427A1882321F0622C5A2C498019
:102500003A802D813E814F8158856D817E818F81FA
:1025100098850E9427A1882321F01D821E821F8298
:102520001886292D382D4B815C81692D782D8B8162
:102530009C810E9427A1882331F09D808E80AF81ED
:10254000AB83B885BC8385E02B853C85829FF001F9
:10255000839FF00D112449855A85E40FF51FEE0F76
:10256000FF1FEE0FFF1FE453FC4FFA87E9872B2D67
:102570003C2D4D2D5E2D6B2D7C2D8D2D9E2D0E9485
:102580007B9E2F2D302F412F572D0E947A9E6B015D
:102590007C01262D352D442D532D662D752D842D32
:1025A000932D0E947B9E222D3A2D49815A810E94B3
:1025B0007A9E9B01AC01C701B6010E947B9E6B0114
:1025C0007C01292D382D4B815C81692D782D8B81E3
:1025D0009C810E947B9E2D813E814F8158850E9467
:1025E0007A9E9B01AC01C701B6010E947B9E20E050
:1025F00030E040E450E40E94579FA985BA856D936E
:102600007D938D939C9313972E960FB6F894DEBF0F
:102610000FBECDBFDF91CF911F910F91FF90EF9033
:10262000DF90CF90BF90AF909F908F907F906F90F2
:102630005F904F903F902F900895CF92DF92EF924E
:10264000FF926B017C0183E3C816D104E104F1041D
:1026500070F082E3C81AD108E108F10862E370E083
:1026600080E090E00E941B730E940439ECCFC70108
:10267000B6010E941B73FF90EF90DF90CF900C94F7
:102680000439FF920F931F93CF93DF931F92CDB71F
:10269000DEB7F82E0AE416E041E050E0B801CE01C2
:1026A00001960E94BD9989818F1102C081E007C007
:1026B0000F5F1F4F86E00636180771F780E00F9016
:1026C000DF91CF911F910F91FF9008957F928F928C
:1026D0009F92AF92BF92CF92DF92EF92FF920F93B1
:1026E0001F93CF93DF93FC019081943208F0CCC00C
:1026F0006B017F01892F90E0FC01EE0FFF1F8E0F11
:102700009F1FFC01E359F14F808161E08F730E94AC
:102710001872F7011182128280816CE00E9443A13D
:10272000FCE08F9FB001112440E050E09B01240F9A
:10273000351FF901EE0FFF1F2E0F3F1FF901E3595F
:10274000F14F908196FD07C04F5F5F4F4C305105B0
:1027500069F790E0E9DCF7017080C72DD0E08E01C9
:10276000000F111FF801EC0FFD1FE359F14F80819D
:102770008064808377FC88C0F0E2CF16F2E0DF0649
:102780000CF041C0F701828128E532E0281B3109B5
:1027900087FD3395220F331F220F331F032E000CAA
:1027A000440B550B818168E870E04B01881A910851
:1027B00087FD9394880C991C880C991C092C000C9B
:1027C000AA08BB08D7FC0BC0B601653B710514F025
:1027D00064EB70E0072E000C880B990B03C060E0DF
:1027E00070E0CB01281939094A095B090E94149E3F
:1027F00024EB30E040E050E00E94459E820E931EA4
:10280000A41EB51E01C04601F3E2F71558F1F70109
:10281000218188E890E0821B910927FD9395880F1C
:10282000991F880F991F8816990684F0F701228155
:1028300088E592E0821B910927FD9395880F991FE7
:10284000880F991F881699060CF4C40102972FB7B8
:10285000F894C00FD11FC359D14F880F991F9A8385
:1028600089832FBF62E370E080E090E0DF91CF9139
:102870001F910F91FF90EF90DF90CF90BF90AF909E
:102880009F908F907F90D9CEDF91CF911F910F9124
:10289000FF90EF90DF90CF90BF90AF909F908F9080
:1028A0007F900895DC01EC91F0E0CF01880F991F33
:1028B000E80FF91FE359F14F80818F7B80830895E2
:1028C0001F920F920FB60F9211240BB60F922F93F7
:1028D0003F934F935F936F937F938F939F93AF93A8
:1028E000BF93EF93FF9348E251E064E271E082E02E
:1028F00090E04BDCFF91EF91BF91AF919F918F9151
:102900007F916F915F914F913F912F910F900BBEEF
:102910000F900FBE0F901F9018951F920F920FB639
:102920000F9211240BB60F922F933F934F935F9307
:102930006F937F938F939F93AF93BF93EF93FF9387
:1029400048EA50E064EA70E081E090E01EDCFF912C
:10295000EF91BF91AF919F918F917F916F915F9117
:102960004F913F912F910F900BBE0F900FBE0F9084
:102970001F9018951F920F920FB60F9211240BB64D
:102980000F922F933F934F935F936F937F938F9308
:102990009F93AF93BF93EF93FF9348E950E064E9AF
:1029A00070E080E090E0F1DBFF91EF91BF91AF919B
:1029B0009F918F917F916F915F914F913F912F9157
:1029C0000F900BBE0F900FBE0F901F9018958F9217
:1029D0009F92AF92BF92CF92DF92EF92FF920F93AE
:1029E000CF93DF931F92CDB7DEB75C016B017A0105
:1029F0004901F501808191810E94FE9D8983002318
:102A000011F0F6018083BE016F5F7F4FC4010E9409
:102A10001A7EF50180819181019691838083FFEF79
:102A2000CF1ADF0A81E0E81AF10819F780E00F9069
:102A3000DF91CF910F91FF90EF90DF90CF90BF90FB
:102A4000AF909F908F9008959091C00095FFFCCF1C
:102A50008093C6000895CF93DF93FC018491EF012A
:102A60002196882319F0F0DFFE01F8CFDF91CF9196
:102A700008950F931F93CF93DF938B01ECDFE80151
:102A80008991882311F0E0DFFBCFDF91CF911F9177
:102A90000F9108958FE798E0DECF89E798E0DBCFCC
:102AA0000E9487370E942F5480910B02882359F08F
:102AB000F1DF81E097E0CFDF6EE571E080E090E04C
:102AC000BCDD10920B0208950E948737E3DF81EE90
:102AD00096E0C1DF89EE93E030E6019729F0232FDD
:102AE0002A950000E9F7F9CFF89489EE93E038EEE3
:102AF000019729F0232F2A950000E9F7F9CF0E94CA
:102B00008737A895FECF7F928F929F92AF92BF9208
:102B1000CF92DF92EF92FF920F931F93CF93DF93A9
:102B20001F92CDB7DEB77C0159018B016B01C40E3A
:102B3000D51E0C151D0549F1F70180809180F80123
:102B400071908F017982C4010E94FE9D781681F0F8
:102B5000672DC4010E94069EC4010E94FE9D9981BA
:102B6000891731F09ADF80E396E075DF81E00EC0CF
:102B7000BE016F5F7F4FC5010E941A7EF701808101
:102B80009181019691838083D4CF80E00F90DF9173
:102B9000CF911F910F91FF90EF90DF90CF90BF905A
:102BA000AF909F908F907F9008952F923F924F9279
:102BB0005F926F927F928F929F92AF92BF92CF92CD
:102BC000DF92EF92FF920F931F93CF93DF93CDB7D6
:102BD000DEB727970FB6F894DEBF0FBECDBF0E94B9
:102BE00053736B017C0180910202882339F180913B
:102BF0004404882319F14091DE055091DF0560916E
:102C0000E0057091E10597018601041B150B260B69
:102C1000370B37FD26C0833069F034F4813074F00F
:102C20003CDF85E996E009C0843041F436DF86E672
:102C300096E003C032DF8EE796E00DDF20910202BE
:102C400030E0A8EEB3E00E946B9EC60ED71EE81ED1
:102C5000F91EC092DE05D092DF05E092E005F09209
:102C6000E1058091C605843030F40E94E35581115E
:102C700002C00E94AD540E9453736B017C014091CD
:102C8000A0035091A1036091A2037091A303411589
:102C900051056105710509F1809154039091550327
:102CA000A0915603B0915703840F951FA61FB71F1D
:102CB000A7019601281B390B4A0B5B0B57FD0DC072
:102CC000E9DE60915E0E70915F0E87EA96E0D1DEDC
:102CD0008AE0BADE80E090E0F7DE40910302509196
:102CE00004026091050270910602411551056105CB
:102CF000710509F448C09091E00E8091E10E98179B
:102D000059F00E945373609354037093550380935A
:102D100056039093570337C0809154039091550305
:102D2000A0915603B0915703840F951FA61FB71F9C
:102D300097018601081B190B2A0B3B0B37FD21C09D
:102D40008091EA0581111FC081E08093EA055F9AB6
:102D500080912E0E8E7F80932E0E8A9A80912E0E59
:102D60008D7F80932E0E80910801809581708093D5
:102D70000601479A80912E0E8B7F80932E0E129A19
:102D800002C01092EA058091E6059091E705A091B6
:102D9000E805B091E905A7019601281B390B4A0BFC
:102DA0005B0B57FD2AC19091E00E8091E10E9817C0
:102DB00091F0E091E10E3BE5E39FF0011124E25830
:102DC000F74F60818091E10E9091E00E981729F005
:102DD0008F5F8F70F9CF6091FF0770E089E00E94EC
:102DE000547280914A06882309F4FAC020904D025B
:102DF00030904E0200914F020F83109150021E83BB
:102E00006091190870911A086E5F7F4F072E000CB1
:102E1000880B990B0E943B9A9101A8010E94359A58
:102E200087FDDEC00091E10E09831A821B821C829D
:102E30001D828091E00E1981811709F460C0812FF5
:102E400090E02BE5289FF001299FF00D1124E85D0B
:102E5000F74F458956896789708D452B462B472B3F
:102E600081F4418D528D638D748D452B462B472BFC
:102E700041F4458D568D678D70A1452B462B472B10
:102E8000C9F13BE5389F8001399F100D1124085D81
:102E9000174FF80161817281838194810E94E6A0BD
:102EA0004B015C01F80161A172A183A194A10E9470
:102EB000399A2B013C01F80165A176A187A190A563
:102EC0000E94399A9B01AC01C301B2010E94579F35
:102ED000A50194010E949A9A5B018C012A813B8191
:102EE0004C815D810E94A1A0181624F4AA82BB82A5
:102EF0000C831D8389818F5F8F7089839ACF209186
:102F000051023091520240915302509154026A8111
:102F10007B818C819D810E949A9A91014F815E8173
:102F20000E947B9E5B018C019B01AC01B1018F81F2
:102F30009E810E94A1A01816B4F020904902309002
:102F40004A02F0914B02FF8320914C022E839101A3
:102F50004F2F5E81B501C8010E94A1A018161CF078
:102F600015010F831E838090E2059090E305A090E9
:102F7000E405B090E50591014F815E81C501B40182
:102F80000E94A1A01816D4F420E037ED43EA5CE3D8
:102F9000B1018F819E810E949A9A2B013C0128E405
:102FA00031EE4AE75FE3C501B4010E949A9AA3019A
:102FB00092010E947B9E1B018F839E83C101AF8182
:102FC000BE818093E2059093E305A093E405B0935E
:102FD000E505B101CD010E94BF9FCB010E94FE31EA
:102FE00034E6C30ED11CE11CF11CC092E605D09260
:102FF000E705E092E805F092E9050E940439809126
:103000009B03882309F446C00E94537300919703E1
:10301000109198032091990330919A03DC01CB0120
:10302000801B910BA20BB30BB7FD34C00E945373EE
:103030006B017C0120919B0330E0A8EEB3E00E947D
:103040006B9EC60ED71EE81EF91EC0929703D09243
:103050009803E0929903F0929A0380E00E940E3266
:103060008AE027960FB6F894DEBF0FBECDBFDF9182
:10307000CF911F910F91FF90EF90DF90CF90BF9075
:10308000AF909F908F907F906F905F904F903F9008
:103090002F90DACC27960FB6F894DEBF0FBECDBFC7
:1030A000DF91CF911F910F91FF90EF90DF90CF9024
:1030B000BF90AF909F908F907F906F905F904F9058
:1030C0003F902F9008958F929F92AF92BF92EF9270
:1030D000FF920F931F93CF93DF93CDB7DEB7A097E7
:1030E0000FB6F894DEBF0FBECDBF61157105810527
:1030F000910589F100E0842E912CA12CB12C102F88
:10310000EE24E394F12CEC0EFD1EE00EF11C07FD05
:10311000FA94A50194010E94239EF7016083B901EE
:10312000CA010F5F611571058105910541F71F3FC8
:1031300021F1E1E0F0E0EC0FFD1FE10FF11D17FDC3
:10314000FA9580818A3010F097E301C090E3890FEF
:103150007BDC1150ECCF80E3A0960FB6F894DEBF75
:103160000FBECDBFDF91CF911F910F91FF90EF90D8
:10317000BF90AF909F908F9067CCA0960FB6F894B9
:10318000DEBF0FBECDBFDF91CF911F910F91FF909A
:10319000EF90BF90AF909F908F900895CF93DF9363
:1031A000EB0159DCBE0180E090E04AE0DF91CF9175
:1031B0008ACFCF92DF92EF92FF926B017C0197FF53
:1031C0000AC08DE241DCF094E094D094C094C11C1C
:1031D000D11CE11CF11C4AE0C701B601FF90EF9041
:1031E000DF90CF9070CFCF93DF93EB0134DCBE0143
:1031F000DD0F880B990BDF91CF91DBCFCF92DF9260
:10320000EF92FF920F931F93CF93DF931F921F9222
:10321000CDB7DEB71092C0008091C000826080936D
:10322000C0001092C50087E08093C4008091C10067
:1032300080618093C1008091C10088608093C1004B
:103240008091C10080688093C1000E94537382E71F
:1032500098E001DC22DC14B710FF03C089E698E097
:10326000FADB11FF03C088E598E0F5DB12FF03C02D
:1032700086E498E0F0DB13FF03C085E398E0EBDB26
:1032800015FF03C084E298E0E6DB14BE8DE198E010
:10329000E2DB80E2D9DB8FE098E0DDDB8AE0D4DBA3
:1032A000FCDB8FEF97E0D7DB84EF97E0D4DB85EB97
:1032B00097E0D1DBF2DB8EE997E0CDDBEEDB20910E
:1032C000060F3091070FCE0101962115310519F433
:1032D0008C509F4002C0821B930B9A838983698123
:1032E0007A818FE897E07FDF60EB75E088E797E011
:1032F0007ADF8AE0A9DB81E080933D0480933E047D
:1033000080933F04809340040E94587510E3E12E9F
:1033100014E0F12E0DE512E089E6C82E82E0D82EE9
:10332000F70121913191419151917F01F801608123
:103330007181828193810E947B9EF80161937193D8
:10334000819391938F01CE16DF0651F70E94B3450A
:10335000249A2C98809101018062809301018091D0
:10336000020180728093000180910101806480934A
:10337000010187ED80937A0010927E0010927D000B
:1033800080917D00806280937D0080917D008064CB
:1033900080937D0080E888BD80916E00846080937A
:1033A0006E00809101018061809301016AEF70E0FD
:1033B00080E090E00E941B7385E090E090931A02F9
:1033C0008093190260E080911502909116020E948C
:1033D0003D3820E030E040EA50E40E94359A87FF13
:1033E0000AC08091150290911602409790931602A0
:1033F00080931502E7CF83E191E090931C028093C4
:103400001B0260E080911702909118020E943D38E3
:1034100020E030E849E853E40E94A1A0181654F4D3
:103420008091170290911802409690931802809311
:103430001702E7CF80911002909111020E94A437E9
:1034400020E030E040EA50E40E94359A87FF0AC04D
:1034500080911002909111024097909311028093F5
:103460001002E8CF80914B0690914C060E94A43741
:1034700020E030E046E153E40E94A1A0181654F485
:1034800080914B0690914C06409690934C06809309
:103490004B06E8CF0E94F2536D98759A8091040113
:1034A0008D7F8093040180910501809582708093C7
:1034B000030152985A9A1092A5031092A4030E94F5
:1034C0001374819A879A80910A01826080930A011D
:1034D0003B9A0E9A3B9A579A5F9A829A8A9A80915F
:1034E00007018160809307018091080180958170B8
:1034F000809306013F9A479A0A9A129A3F9A479AEE
:10350000809A88985F9A80912E0E8E7F80932E0EDF
:10351000869A8E988A9A80912E0E8D7F80932E0E99
:10352000399A419880910A01886080930A018091BC
:103530000B0188708093090180910801809581704A
:1035400080930601479A80912E0E8B7F80932E0EDA
:103550000C9A1498129A809180008C7F809380003E
:1035600080918100877E88608093810080918000B7
:103570008F738093800080918100887F8260809328
:10358000810080E090E490938900809388001092FD
:1035900085001092840080916F00826080936F009C
:1035A000789484E08093EF050E94D568E091DA0E6C
:1035B000E43208F042C0F0E0CF01880F991FE80F15
:1035C000F91FE359F14F8081807C8B60808361E03B
:1035D0008BE00E9418721092DB0E1092DC0E80912C
:1035E000DA0E6CE00E9443A1FCE08F9FB001112431
:1035F00040E050E09B01240F351FF901EE0FFF1F43
:103600002E0F3F1FF901E359F14F908196FD08C03D
:103610004F5F5F4F4C30510569F790E00E94941066
:10362000E091DA0EF0E0CF01880F991FE80FF91F43
:10363000E359F14F8081806480838AED9EE032D926
:103640006AE570E08AED9EE041D81092280E0E9453
:10365000137481E00E94D74998E288E10FB6F8948C
:10366000A895809360000FBE909360000F900F901C
:10367000DF91CF911F910F91FF90EF90DF90CF904E
:1036800008958F929F92AF92BF92CF92DF92EF9266
:10369000FF92CF936B017C01B42E20E030E0A901B2
:1036A0000E94359A87FF06C08DE2CED9F7FAF094D2
:1036B000F7F8F094C0E060E070E080E09FE3CB15A5
:1036C00041F02DEC3CEC4CEC5DE30E949A9ACF5F0C
:1036D000F6CF9B01AC01C701B6010E947B9E6B0136
:1036E0007C010E94C49F4B015C014AE0ECDCCC23CE
:1036F00079F1C501B4010E94399A9B01AC01C7015F
:10370000B6010E947A9E6B017C018EE29DD920E079
:1037100030E040E251E4C701B6010E949A9A4B01A1
:103720005C010E94BF9F6B01770FEE08FF08C70185
:10373000B6013FDDC701B6010E943B9A9B01AC0177
:10374000C501B4010E947A9E6B017C01C150F9F65B
:10375000CF91FF90EF90DF90CF90BF90AF909F9070
:103760008F9008958F929F92AF92BF92CF92DF92E7
:10377000EF92FF920F931F93CF93DF9386E898E029
:103780006AD9C12CD12C7601C7E0C15019F080E272
:103790005BD9FBCFC701B6010CDD8FEFC81AD80A81
:1037A000E80AF80A95E0C916D104E104F10461F7CA
:1037B0008AE04AD90CEC13E0C12CD12C760180E2CE
:1037C00043D9C701B601F5DCC0E0D0E080E23CD9C6
:1037D000F801EC0FFD1F80809180A280B380A501CD
:1037E0009401C501B4010E9427A1811110C020E0FD
:1037F00030E0A901C501B4010E94A1A087FD02C06B
:103800008BE222D943E0C501B4013BDF08C0B12CF3
:1038100080E21AD9B3948DE396E0B912FACF649698
:10382000C436D10599F68AE00FD98FEFC81AD80AA5
:10383000E80AF80A0C5F1F4F95E0C916D104E104AD
:10384000F10409F0BCCF8AE0DF91CF911F910F9175
:10385000FF90EF90DF90CF90BF90AF909F908F90B0
:10386000F3C8CF92DF92EF92FF926A017B01F3D807
:1038700042E0C701B601FF90EF90DF90CF9001CFFB
:103880008DE0E2D88AE0E0C88091E7069091E806F2
:10389000981759F0E92FF0E0E951F94F82819F5FC5
:1038A0009F779093E80690E008958FEF9FEF08953B
:1038B0001F920F920FB60F9211240F900FBE0F9010
:1038C0001F9018951F920F920FB60F9211240BB6EE
:1038D0000F922F938F939F93EF93FF932091E8067E
:1038E000E091E70681E08E0F8F779091C600281750
:1038F00029F0F0E0E951F94F9283E82FE093E706D1
:10390000FF91EF919F918F912F910F900BBE0F9090
:103910000FBE0F901F9018952F923F924F925F927B
:103920006F927F928F929F92AF92BF92CF92DF92CF
:10393000EF92FF920F931F93CF93DF93CDB7DEB734
:1039400066970FB6F894DEBF0FBECDBF8FEF9FEF27
:103950009093890080938800BAE0DB2E212C312CD3
:1039600078948091340690913506A0913606B091F6
:103970003706892B8A2B8B2B09F0D7C180914E0EED
:103980008823D1F010924E0E80914C0E90914D0EE6
:10399000892B91F01092F40510924D0E10924C0E5E
:1039A0009091E00E8091E10E981731F08091E10E38
:1039B0008F5F8F708093E10E80914C0E90914D0E31
:1039C000892B09F4B2C10091300610913106209183
:1039D00032063091330680912C0690912D06A091ED
:1039E0002E06B0912F064091220650E060E070E074
:1039F000801B910BA20BB30B481759076A077B0773
:103A000010F4DB01CA01482F800F911FA21FB31FC2
:103A10008093300690933106A0933206B09333061C
:103A20008091840090918500809680900906909006
:103A30000A06A0900B06B0900C060091F9051091B3
:103A4000FA052091FB053091FC05080D191D2A1D72
:103A50003B1D0093090610930A0620930B06309332
:103A60000C0637FD1CC0889A00915A0310915B0325
:103A700020915C0330915D038090EB05082C000CD5
:103A80009908AA08BB08080D191D2A1D3B1D0093A3
:103A90005A0310935B0320935C0330935D03809083
:103AA0000D0690900E06A0900F06B09010060091A3
:103AB000FD051091FE052091FF0530910006080DCF
:103AC000191D2A1D3B1D00930D0610930E06209311
:103AD0000F063093100637FD1CC08E9A00915E03CE
:103AE00010915F0320916003309161038090EC0599
:103AF000082C000C9908AA08BB08080D191D2A1DDE
:103B00003B1D00935E0310935F032093600330938B
:103B100061038090110690901206A0901306B09059
:103B200014060091010610910206209103063091BF
:103B30000406080D191D2A1D3B1D00931106109344
:103B40001206209313063093140637FD22C02091ED
:103B50000B012095287020930901419A009162037E
:103B60001091630320916403309165038090ED050B
:103B7000082C000C9908AA08BB08080D191D2A1D5D
:103B80003B1D0093620310936303209364033093FF
:103B900065038090150690901606A0901706B090C9
:103BA000180600910506109106062091070630912F
:103BB0000806080D191D2A1D3B1D009315061093BC
:103BC0001606209317063093180637FD1CC0149A6A
:103BD0000091660310916703209168033091690397
:103BE0008090EE05082C000C9908AA08BB08080D67
:103BF000191D2A1D3B1D0093660310936703209334
:103C00006803309369032091840030918500281760
:103C10003907C8F30091090610910A0620910B0696
:103C200030910C0637FD15C08090F5059090F60593
:103C3000A090F705B090F805081919092A093B0961
:103C40000093090610930A0620930B0630930C0686
:103C5000889800910D0610910E0620910F06309164
:103C6000100637FD15C08090F5059090F605A090E0
:103C7000F705B090F805081919092A093B090093BE
:103C80000D0610930E0620930F06309310068E98A3
:103C9000009111061091120620911306309114061E
:103CA00037FD1AC08090F5059090F605A090F705B5
:103CB000B090F805081919092A093B090093110663
:103CC00010931206209313063093140620910B01D3
:103CD000287020930901419800911506109116064D
:103CE000209117063091180637FD15C08090F50514
:103CF0009090F605A090F705B090F80508191909FD
:103D00002A093B09009315061093160620931706FF
:103D1000309318061498415041F02091840030915E
:103D2000850028173907C8F37FCE8091340690911B
:103D30003506A0913606B0913706892B8A2B8B2B3E
:103D400009F01CC6E0914C0EF0914D0E309709F42D
:103D5000A3C78091300690913106A0913206B091B0
:103D6000330640912C0650912D0660912E067091DD
:103D70002F0684179507A607B707D0F01092F40511
:103D800010924D0E10924C0E9091E00E8091E10E2B
:103D9000981709F481C78091E10E8F5F8F7080932F
:103DA000E10EA0ED8A2EA7E09A2EA12CB12CF9C32A
:103DB000409128065091290660912A0670912B06A1
:103DC000481759076A077B0708F4A2C140902406E8
:103DD00050902506609026067090270685A996A922
:103DE000A7A9B0AD481659066A067B0608F073C14C
:103DF000411451046104710449F48091F0059091DB
:103E0000F105A091F205B091F30569C1B0E0AC2DC8
:103E1000842D352D262DF981EA817B816C815D8190
:103E20004E819F815091290E589F712D6627409198
:103E30002A0E489F700D611D10902B0E189E600D6C
:103E4000539F700D611D439F600D529F600DF72FB2
:103E5000E62FF79F512D44279927F69F500D411DBE
:103E60009B1FE79F500D411D9B1FE69F400D911D1D
:103E7000F42FE92FF79FA12D44279927F69FA00D36
:103E8000411D9B1FE79FA00D411D9B1FE69F400DFD
:103E9000911DF42FE92F55278091F0053091F10500
:103EA0002091F2050090D7050B2A09F483C04091B8
:103EB000D3054F9F51198B0B3B0B2B0B9091D405C6
:103EC0009F9F501981093B0B2B0BA091D505AF9FEC
:103ED000801931092B0B4E9F501981093B0B2B0B7D
:103EE0009E9F801931092B0BAE9F30192109F79F36
:103EF000A12D44279927F69FA00D411D9B1FE79FE9
:103F0000A00D411D9B1FE69F400D911DF42FE92F31
:103F10004091CF054F9F510D8B1F3B1F2B1F909141
:103F2000D0059F9F500D811D3B1F2B1FA091D105D8
:103F3000AF9F800D311D2B1F4E9F500D811D3B1FCC
:103F40002B1F9E9F800D311D2B1FAE9F300D211DFD
:103F5000F79FA12D44279927F69FA00D411D9B1F78
:103F6000E79FA00D411D9B1FE69F400D911DF42F63
:103F7000E92F4091CB054F9F51198B0B3B0B2B0B1E
:103F80009091CC059F9F501981093B0B2B0BA09161
:103F9000CD05AF9F801931092B0B4E9F5019810918
:103FA0003B0B2B0B9E9F801931092B0BAE9F3019B9
:103FB000210982C04091D3054F9F510D8B1F3B1F9C
:103FC0002B1F9091D4059F9F500D811D3B1F2B1FD0
:103FD000A091D505AF9F800D311D2B1F4E9F500D19
:103FE000811D3B1F2B1F9E9F800D311D2B1FAE9FE0
:103FF000300D211DF79FA12D44279927F69FA00D75
:10400000411D9B1FE79FA00D411D9B1FE69F400D7B
:10401000911DF42FE92F4091CF054F9F51198B0B24
:104020003B0B2B0B9091D0059F9F501981093B0BA7
:104030002B0BA091D105AF9F801931092B0B4E9FFF
:10404000501981093B0B2B0B9E9F801931092B0BBB
:10405000AE9F30192109F79FA12D44279927F69F7C
:10406000A00D411D9B1FE79FA00D411D9B1FE69FBB
:10407000400D911DF42FE92F4091CB054F9F510D1D
:104080008B1F3B1F2B1F9091CC059F9F500D811DB7
:104090003B1F2B1FA091CD05AF9F800D311D2B1F06
:1040A0004E9F500D811D3B1F2B1F9E9F800D311D6C
:1040B0002B1FAE9F300D211D1124CA2EF983EA83D8
:1040C0007B836C835D834E839F8390E0932BA0E082
:1040D000B0E0A22B04C081A992A9A3A9B4A9009021
:1040E000230604C0880F991FAA1FBB1F0A94D2F78A
:1040F0002FE930E141E0488BF901459155916591F7
:104100007491481759076A077B0708F486C493C45B
:1041100040911E0650911F06609120067091210665
:10412000481759076A077B0708F0C5C180911D062B
:1041300081111FC0DF01AF5BBF4FED90FD900D916E
:104140001C9113971D962D913D914D915C9161A904
:1041500072A983A994A90E94836881E080931D06B7
:10416000E0914C0EF0914D0E41A852A863A874A89E
:104170008AC18091190690911A06A0911B06B091F0
:104180001C0641AD52AD63AD74AD84179507A6070B
:10419000B70708F072C10097A105B10549F4409036
:1041A000F0055090F1056090F2057090F3056BC139
:1041B00050E06885482E292F8A2FA985FA85EB853E
:1041C0007C854D853E859F854091290E449DE12D3E
:1041D000772730912A0E349DE00D711D10902B0E23
:1041E000149C700D429FE00D711D329F700D489F11
:1041F000700DAE2FF72FAE9F412D33279927A79F24
:10420000400D311D951FFE9F400D311D951FF79FDD
:10421000300D911DA32FF92FAE9F612D33279927C4
:10422000A79F600D311D951FFE9F600D311D951FCD
:10423000F79F300D911DA32FF92F44274090F005D3
:104240002091F1058091F2050090D705052A09F427
:1042500083C03091D3053A9F4119450A250B850B40
:104260009091D4059A9F40194108250B850B6091C8
:10427000D5056A9F40182109850B3F9F40194108C9
:10428000250B850B9F9F40182109850B6F9F2019D7
:104290008109AE9F612D33279927A79F600D311D9E
:1042A000951FFE9F600D311D951FF79F300D911DCD
:1042B000A32FF92F3091CF053A9F410D451E251FA1
:1042C000851F9091D0059A9F400D411C251F851F89
:1042D0006091D1056A9F400C211D851F3F9F400DB5
:1042E000411C251F851F9F9F400C211D851F6F9F0F
:1042F000200D811DAE9F612D33279927A79F600D4B
:10430000311D951FFE9F600D311D951FF79F300DCC
:10431000911DA32FF92F3091CB053A9F4119450AE2
:10432000250B850B9091CC059A9F40194108250BD0
:10433000850B6091CD056A9F40182109850B3F9F31
:1043400040194108250B850B9F9F40182109850BBB
:104350006F9F2019810982C03091D3053A9F410D8A
:10436000451E251F851F9091D4059A9F400D411C25
:10437000251F851F6091D5056A9F400C211D851F53
:104380003F9F400D411C251F851F9F9F400C211DF5
:10439000851F6F9F200D811DAE9F612D33279927AB
:1043A000A79F600D311D951FFE9F600D311D951F4C
:1043B000F79F300D911DA32FF92F3091CF053A9F14
:1043C0004119450A250B850B9091D0059A9F4019FC
:1043D0004108250B850B6091D1056A9F4018210982
:1043E000850B3F9F40194108250B850B9F9F401867
:1043F0002109850B6F9F20198109AE9F612D3327FD
:104400009927A79F600D311D951FFE9F600D311DDF
:10441000951FF79F300D911DA32FF92F3091CB05DC
:104420003A9F410D451E251F851F9091CC059A9FEF
:10443000400D411C251F851F6091CD056A9F400CD2
:10444000211D851F3F9F400D411C251F851F9F9FDC
:10445000400C211D851F6F9F200D811D1124688731
:10446000A987FA87EB877C874D873E879F87512CEA
:10447000522A612C712C682A06C0E25BFF4F4080F3
:104480005180628073800090230604C0440C551C48
:10449000661C771C0A94D2F78FE990E121E0FC01B9
:1044A00045915591659174914415550566057705BB
:1044B00008F424C32EC380910C0290910D02A091A8
:1044C0000E02B0910F02B7FF64C0EA5BFF4F80801D
:1044D0009180A280B3800090230604C0880C991CB0
:1044E000AA1CBB1C0A94D2F78FE990E121E0FC01E1
:1044F0004591559165917491481559056A057B055B
:1045000050F4B694A79497948794220F049630E1C0
:104510008B3B930761F72093220620E282169104D9
:10452000A104B10408F489C380E2881A9108A108A3
:10453000B108811498E09906A104B10408F459C3A4
:10454000A4E09A9EC00111248156934FFC0132963B
:1045500025913491B82D6627B39FA001B29F410DDC
:10456000561F0694461F561F112460E070E0FC01A0
:1045700025913491C901A0E0B0E0841B950BA60BF6
:10458000B70B80930C0290930D02A0930E02B09390
:104590000F0280900C0290900D02A0900E02B0903D
:1045A0000F0280914C0E90914D0E892B09F0DEC1C7
:1045B0000E94136990934D0E80934C0E892B09F441
:1045C000D5C1E0914C0EF0914D0E808183FF3EC02D
:1045D00085899689A789B08D80935A0390935B0350
:1045E000A0935C03B0935D03818D928DA38DB48DF8
:1045F00080935E0390935F03A0936003B093610385
:10460000858D968DA78DB0A18093620390936303EF
:10461000A0936403B093650381A192A1A3A1B4A167
:104620008093660390936703A0936803B093690334
:104630009091E00E8091E10E981709F4B9CF809126
:10464000E10E8F5F8F708093E10EB2CF85889688E0
:10465000A788B08C81E081149104A104B10409F40D
:1046600080E0218D328D438D548D2B8B3C8B4D8B77
:104670005E8B232B242B252B09F08260458D568DD4
:10468000678D70A1411551056105710509F08460C0
:104690008093F4051092190610921A0610921B06C8
:1046A00010921C06109224061092250610922606DF
:1046B00010922706DF01AA5BBF4F8D919D910D904F
:1046C000BC91A02DF12C893330E39307A105B105EE
:1046D00060F4880F991FAA1FBB1F893320E392073C
:1046E000A105B10510F4F394EECFF09223068F2DBF
:1046F00090E09A8B898B85A196A1A7A1B0A50F2CDC
:1047000004C0880F991FAA1FBB1F0A94D2F7809379
:104710002C0690932D06A0932E06B0932F064424CA
:1047200055243201481A590A6A0A7B0A4092150632
:104730005092160660921706709218064092110663
:1047400050921206609213067092140640920D0663
:1047500050920E0660920F06709210064092090663
:1047600050920A0660920B0670920C06880C991CF7
:10477000AA1CBB1C8092F9059092FA05A092FB0539
:10478000B092FC050B891C892D893E89000F111FF1
:10479000221F331F0093FD051093FE052093FF0594
:1047A00030930006440F551F661F771F4093010684
:1047B00050930206609303067093040641A152A130
:1047C00063A174A1440F551F661F771F4093050610
:1047D000509306066093070670930806880F991F8A
:1047E000AA1FBB1F8093F5059093F605A093F705CC
:1047F000B093F805109230061092310610923206EE
:104800001092330681A592A5A3A5B4A50F2C04C0D0
:10481000880F991FAA1FBB1F0A94D2F780932806FE
:1048200090932906A0932A06B0932B0685A596A5FA
:10483000A7A5B0A904C0880F991FAA1FBB1FFA948F
:10484000D2F780931E0690931F06A0932006B09384
:104850002106EB5BFF4F80819091EF05891721F0D6
:104860008093EF050E94D5680E9499472FEF3FEF94
:10487000A90120930C0230930D0240930E02509335
:104880000F02E0914C0EF0914D0EDF01DD96ED90A0
:10489000FD900D911C9121A932A943A954A9E65B71
:1048A000FF4F60817181828193810E9483681092A1
:1048B0001D06E0914C0EF0914D0EE65BFF4F4080DF
:1048C000518062807380098804C0440C551C661CAA
:1048D000771C0A94D2F78FE990E121E0FC01459121
:1048E000559165917491441555056605770558F401
:1048F0007694679457944794220F04964BEB50E1BB
:104900004817590759F72093220650E245165104DB
:104910006104710408F4BAC130E2431A5108610815
:104920007108411448E054066104710408F48BC115
:1049300054E0559EC00111248156934FFC013296DC
:1049400025913491742D6627739FA001729F410DAC
:10495000561F0694461F561F1124FC018590949003
:10496000A12CB12C841A950AA108B10880923406B2
:1049700090923506A0923606B092370680913406A2
:1049800090913506A0913606B0913706AC01BD0175
:10499000009721E0A207B10520F04FEF5FEF60E044
:1049A00070E0841B950BA60BB70B80933406909395
:1049B0003506A0933606B0933706F89480918400AC
:1049C000909185004096DA94DD2041F0240E351E4A
:1049D0002816390610F40C94B01C01C01C0130924A
:1049E000890020928800789466960FB6F894DEBF0E
:1049F0000FBECDBFDF91CF911F910F91FF90EF9030
:104A0000DF90CF90BF90AF909F908F907F906F90EE
:104A10005F904F903F902F900895B695A7959795EA
:104A200087954889440F488B2C5F3F4F50E12B3BC3
:104A3000350709F061CB78897093220680329105A1
:104A4000A105B10508F455C08097A109B1098115E8
:104A500058E09507A105B105F0F074E0979F90012B
:104A600011242156334FF901329645915491EE2786
:104A7000859FB001849F610D7E1F06946E1F7E1F6F
:104A80001124F90185909490A12CB12C861A970AD3
:104A9000A108B10821C0AC01BD0176956795579575
:104AA0004795FA01EC7F9F012156374FF901859018
:104AB0009490F9013296459154918770849F9001AA
:104AC000859F300D1124F3E036952795FA95E1F78F
:104AD000821A930AA12CB12C480C591C6A1C7B1C0D
:104AE0004092240650922506609226067092270670
:104AF00058CD80E290E0A0E0B0E0A6CF7694679435
:104B000057944794220F0496A0E18B3B9A0709F033
:104B1000C6CC20932206B0E24B1651046104710406
:104B200008F461C090E2491A510861087108411403
:104B3000A8E05A0661047104F8F0B4E05B9EC0017D
:104B400011248156934FFC01329625913491742D96
:104B50006627739FA001729F410D561F0694461F42
:104B6000561F1124FC0185909490A12CB12C841A1D
:104B7000950AA108B10822C0D301C201B695A79534
:104B800097958795FC01EC7FCF018156974FFC01EB
:104B900085909490FC01329625913491442D477074
:104BA000429FC001439F900D112463E09695879525
:104BB0006A95E1F7881A990AA12CB12C80911906FF
:104BC00090911A06A0911B06B0911C06880D991DA4
:104BD000AA1DBB1D8093190690931A06A0931B066D
:104BE000B0931C06DECC60E2462E512C612C712C59
:104BF00099CFD501C401B695A79597958795FC01E6
:104C0000EC7FCF018156974FFC0125913491FC0137
:104C1000329645915491682D6770649FC001659FDD
:104C2000900D112443E0969587954A95E1F7281B4E
:104C3000390BC901A0E0B0E0A4CC50E2852E912C44
:104C4000A12CB12C71CCD301C201B695A795979533
:104C50008795FC01EC7FCF018156974FFC01859031
:104C60009490FC01329625913491442D4770429FD7
:104C7000C001439F900D1124A3E096958795AA95B6
:104C8000E1F7881A990AA12CB12C70CE90E2492E36
:104C9000512C612C712C40CE80ED882E87E0982E0F
:104CA000A12CB12C85CC2F923F924F925F926F92A4
:104CB0007F928F929F92AF92BF92CF92DF92EF92AC
:104CC000FF920F931F93CF93DF93CDB7DEB7CC59ED
:104CD000D1090FB6F894DEBF0FBECDBF2DB63EB6DC
:104CE000CB56DF4F19821882C559D04084E690E038
:104CF000C956DF4F99838883C759D04001E09E0190
:104D00002B563F4F44E050E0BE016F567F4FCE011F
:104D100089569F4F0E94E7149E012B563F4F42E059
:104D200050E0BE0167567F4FCE0189569F4F0E94CB
:104D3000E71443E050E0BE016F567F4F81E093E0FF
:104D40000E9493A1892B19F1CC56DF4F8881C45959
:104D5000D040882359F08FE3CF56DF4F8883C15965
:104D6000D040CE56DF4F1882C259D0400E944D1518
:104D7000BE016F567F4F89E791E10E9439158BE69E
:104D800091E10E942B1581E080934506B1C5C35780
:104D9000DF4F188219821A821B82CD58D040CB5621
:104DA000DF4F19821882C559D04001E09E012B5671
:104DB0003F4F41E050E0BE0164567F4FCE0189561F
:104DC0009F4F0E94E7144DB65EB680E1E1E7F2E046
:104DD000DE01A358BF4F01900D928A95E1F780E163
:104DE000E1E8F2E0DE01A359BF4F01900D928A95F0
:104DF000E1F780E1E1E9F2E09E012F5F3F4F3901E9
:104E0000D90101900D928A95E1F7C456DF4F488190
:104E1000CC59D04050E04D5F5F4F440F551F440FB9
:104E2000551F6DB77EB7641B750B0FB6F8947EBF28
:104E30000FBE6DBF8DB79EB701966C0100913C040B
:104E400011E001272C563F4FBC01CE0189569F4FE0
:104E50000E94E71400913C0401279E012B563F4F0E
:104E600044E050E06BEE7DE0CE0189569F4F0E94FA
:104E7000E714C456DF4FE880CC59D040F12C93E0C2
:104E8000E90EF11CEE0CFF1CEE0CFF1CADB7BEB71B
:104E9000AE19BF090FB6F894BEBF0FBEADBFEDB7D8
:104EA000FEB731965F012DB73EB72E193F090FB6F9
:104EB000F8943EBF0FBE2DBF6DB77EB76F5F7F4FBB
:104EC0004B0100913C0401279E012B563F4FA70147
:104ED000BF01CE0189569F4F0E94E71400913C0408
:104EE00001279E012B563F4FA701B401CE018956E1
:104EF0009F4F0E94E71400913C04002309F4E1C095
:104F000011E001279E012B563F4F44E050E06FE037
:104F10007EE0CE0189569F4F0E94E71400913C0429
:104F200001279E012B563F4F44E050E063E17EE0B5
:104F3000CE0189569F4F0E94E71400913C0401273F
:104F40009E012B563F4F44E050E067E17EE0CE01EA
:104F500089569F4F0E94E71400913C0401279E014F
:104F60002B563F4F44E050E06BE17EE0CE01895686
:104F70009F4F0E94E71400913C0401279E012B568D
:104F80003F4F44E050E06FE17EE0CE0189569F4FF5
:104F90000E94E71400913C0401279E012B563F4FCD
:104FA00040E150E06BED77E0CE0189569F4F0E94C3
:104FB000E71400913C0401279E012B563F4F44E02B
:104FC00050E0BE0163577F4FCE0189569F4F0E942C
:104FD000E7140FB6F8945EBE0FBE4DBE00913C04C0
:104FE00001279E012B563F4F4CE050E060E374E0F8
:104FF000CE0189569F4F0E94E71400913C0401277F
:105000009E012B563F4F41E050E0BE0163597F4F58
:10501000CE0189569F4F0E94E71400913C0401275E
:105020009E012B563F4F44E050E0BE016F5F7F4F23
:10503000CE0189569F4F0E94E71400913C0401273E
:105040009E012B563F4F44E050E068E47EE0CE01E5
:1050500089569F4F0E94E71400913C0401279E014E
:105060002B563F4F44E050E0BE0163577F4FCE01C7
:1050700089569F4F0E94E71401E09E012B563F4F37
:1050800041E050E0BE0163597F4FCE0189569F4FEA
:105090000E94E7149E012B563F4F41E050E0BE01B5
:1050A0006F5F7F4FCE0189569F4F0E94E714AE96E7
:1050B0008FADAE97C9808C9D60011124E12CF12C3D
:1050C00071C0C456DF4F2881CC59D04030E02E5FEC
:1050D0003F4FEBEDFDE080E090E02817390714F03A
:1050E000D60111C0AC018430910510F043E050E0CE
:1050F000440F551F440F551F6DE770E06C0F7D1F67
:10510000460F571FDA014D915D916D917C9141934E
:105110005193619371932817390714F0D50111C089
:10512000AC018430910510F043E050E0440F551F6E
:10513000440F551F6DE670E06C0F7D1F460F571F23
:10514000DA014D915D916D917C91408B518B628B19
:10515000738B2817390714F0D4010DC0AC018430CB
:10516000910510F043E050E0440F551F440F551FC8
:10517000460D571DDA014D915D916D917C9140A3D3
:1051800051A362A373A30196B4E08B0E911C44E07B
:10519000A40EB11C64E0C60ED11C8430910509F048
:1051A0009CCFAECE00913C04EC14FD0491F001279D
:1051B0009E012B563F4F44E050E0BE0163577F4FA6
:1051C000CE0189569F4F0E94E7147FEFE71AF70A36
:1051D000E9CF81E008279E012B563F4F44E050E085
:1051E0006BE37EE0CE0189569F4F0E94E7141AE0E0
:1051F000FF24F394115089F000913C040F259E0187
:105200002B563F4F44E050E0BE0163577F4FCE0125
:1052100089569F4F0E94E714EDCF01E09E012B5667
:105220003F4F41E050E0BE0165567F4FCE018956A9
:105230009F4F0E94E7149E012B563F4F41E050E0E4
:10524000BE0163587F4FCE0189569F4F0E94E714DD
:10525000C556DF4F8881CB59D04000913C04853042
:10526000C9F5EE968FADEE978530A1F5011103C01B
:1052700080E00E946A4C00913C0411E001279E01ED
:105280002B563F4F44E050E066E873E0CE0189566C
:105290009F4F0E94E71400913C0401279E012B566A
:1052A0003F4F44E050E06AE873E0CE0189569F4FDB
:1052B0000E94E71400913C0401279E012B563F4FAA
:1052C00044E650E06CEC73E0CE0189569F4F0E949B
:1052D000E71443C011E001279E012B563F4F44E0E5
:1052E00050E0BE0163597F4FCE0189569F4F0E9407
:1052F000E71400913C0401279E012B563F4F44E0E8
:1053000050E0BE016F5F7F4FCE0189569F4F0E94D4
:10531000E714C556DF4F8881CB59D040EE96CFAC0D
:10532000EE978C9D60011124E12CF12CCE14DF044A
:10533000A1F000913C0401279E012B563F4F44E011
:1053400050E0BE0163577F4FCE0189569F4F0E94A8
:10535000E7148FEFE81AF80AE9CF00913C0411E056
:1053600001279E012B563F4F41E050E0BE0163599B
:105370007F4FCE0189569F4F0E94E71400913C0455
:1053800001279E012B563F4F41E050E0BE016F5F69
:105390007F4FCE0189569F4F0E94E71400913C0435
:1053A00001279E012B563F4F44E050E0BE016F5F46
:1053B0007F4FCE0189569F4F0E94E71400913C0415
:1053C00001279E012B563F4F41E050E068E376E015
:1053D000CE0189569F4F0E94E71400913C0401279B
:1053E0009E012B563F4F44E050E0BE0163597F4F72
:1053F000CE0189569F4F0E94E71400913C0401277B
:105400009E012B563F4F44E050E0BE016F5F7F4F3F
:10541000CE0189569F4F0E94E71400913C0401275A
:105420009E012B563F4F42E050E0BE0163587F4F34
:10543000CE0189569F4F0E94E71400913C0401273A
:105440009E012B563F4F40E150E0BE016F5F7F4F02
:10545000CE0189569F4F0E94E71400913C04011130
:105460002EC0C980DA80EB80FC8020E030E84BE37E
:1054700055E4C701B6010E94359A882301F1C09214
:105480001C08D0921D08E0921E08F0921F088D8122
:105490009E81AF81B8858093200890932108A093C6
:1054A0002208B093230889859A85AB85BC858093B3
:1054B000240890932508A0932608B093270811E0AC
:1054C00001279E012B563F4F42E050E0BE016F5F27
:1054D0007F4FCE0189569F4F0E94E71400913C04F4
:1054E00001279E012B563F4F4CE050E0BE016F5FFD
:1054F0007F4FCE0189569F4F0E94E71400913C04D4
:10550000011115C020E030E84BE355E469817A8150
:105510008B819C810E94359A882349F08CE0FE01A2
:105520003196A0ECB3E001900D928A95E1F711E07D
:1055300001279E012B563F4F42E050E0BE016F5FB6
:105540007F4FCE0189569F4F0E94E71400913C0483
:1055500001279E012B563F4F41E050E0BE016F5F97
:105560007F4FCE0189569F4F0E94E71400913C0463
:1055700001279E012B563F4F40E250E0BE016F5F76
:105580007F4FCE0189569F4F0E94E71400913C0443
:1055900001279E012B563F4F41E050E0BE01635969
:1055A0007F4FCE0189569F4F0E94E71400913C0423
:1055B00001279E012B563F4F45E050E0BE016F5F33
:1055C0007F4FCE0189569F4F0E94E71400913C0403
:1055D00001110FC089818093AA038A819B81AC81CC
:1055E000BD818093A6039093A703A093A803B093D3
:1055F000A90311E001279E012B563F4F4AE150E0DD
:10560000BE016F5F7F4FCE0189569F4F0E94E71406
:1056100000913C0401279E012B563F4F44E350E08C
:10562000BE016F5F7F4FCE0189569F4F0E94E714E6
:1056300000913C0401279E012B563F4F46E050E06D
:10564000BE016F5F7F4FCE0189569F4F0E94E714C6
:1056500000913C0401279E012B563F4F4DE050E046
:10566000BE016F5F7F4FCE0189569F4F0E94E714A6
:1056700000913C0401279E012B563F4F44E050E02F
:10568000BE016F5F7F4FCE0189569F4F0E94E71486
:1056900000913C0401279E012B563F4F4CE050E007
:1056A000BE016F5F7F4FCE0189569F4F0E94E71466
:1056B00000913C0401279E012B563F4F4CE650E0E1
:1056C000BE016F5F7F4FCE0189569F4F0E94E71446
:1056D00019821A821B821C821D821E821F821886DA
:1056E00019861A861B861C8600913C0401279E01A0
:1056F0002B563F4F4CE050E0BE016F5F7F4FCE0115
:1057000089569F4F0E94E71400913C0401279E0197
:105710002B563F4F48E050E0BE016F5F7F4FCE01F8
:1057200089569F4F0E94E71400913C0401279E0177
:105730002B563F4F44E050E0BE016F5F7F4FCE01DC
:1057400089569F4F0E94E71400913C0401279E0157
:105750002B563F4F44E050E0BE016B5F7F4FCE01C0
:1057600089569F4F0E94E71400913C0401279E0137
:105770002B563F4F44E050E0BE01675F7F4FCE01A4
:1057800089569F4F0E94E71400913C0401279E0117
:105790002B563F4F41E050E0BE0163587F4FCE0192
:1057A00089569F4F0E94E71400913C0401279E01F7
:1057B0002B563F4F44E050E0BE0163597F4FCE016E
:1057C00089569F4F0E94E714C956DF4F88819981FF
:1057D000C759D040863F924041F00E944A1581EE61
:1057E00090E10E942B1581E001C080E08093450686
:1057F0008823C1F00E944D15C956DF4F6881798119
:10580000C759D0406456710983E691E10E94F318AC
:1058100062E972E08BE591E10E94CE188AE00E9475
:1058200024155CC0CB56DF4F28813981C559D04043
:10583000C756DF4F88819981C959D0402817390749
:10584000E1F081E0809345060E944A15C756DF4F7C
:1058500068817981C959D0408BE391E10E94CE18CB
:10586000CB56DF4F68817981C559D04086E391E1FD
:105870000E94CE1886E291E12FC080913C048111F4
:105880002DC00E944D1501E013E0F80181918F01B8
:10589000882319F00E942415F8CFC956DF4F68817C
:1058A0007981C759D0406456710989E091E10E941D
:1058B000F318CB56DF4FC880D980C559D040E12CB2
:1058C000F12C8CEF90E10E942B154AE0C701B60144
:1058D0000E94631889EF90E10E942B1580913C048F
:1058E000811106C080914506811102C00E941153AA
:1058F00080913C04811102C00E946575909145061B
:1059000081E089270FB6F8943EBE0FBE2DBEC45667
:10591000DF4F0FB6F894DEBF0FBECDBFDF91CF9142
:105920001F910F91FF90EF90DF90CF90BF90AF90BD
:105930009F908F907F906F905F904F903F902F90AF
:1059400008958F929F92AF92BF92CF92DF92EF9283
:10595000FF920F931F93CF93DF93CDB7DEB7CA5853
:10596000D1090FB6F894DEBF0FBECDBFC358DF4FCD
:10597000188219821A821B82CD57D0408091110360
:1059800090911203A0911303B0911403CF57DF4FEE
:1059900088839983AA83BB83C158D040CB57DF4FFC
:1059A00019821882C558D04084E690E0C957DF4F6D
:1059B00099838883C758D040109245069E012B5783
:1059C0003F4F44E050E0BE016F577F4FCE018957F3
:1059D0009F4F0E948315C957DF4F88819981C7580F
:1059E000D0400296C957DF4F99838883C758D0406B
:1059F000CB57DF4F19821882C558D04081E0C65777
:105A0000DF4F8883CA58D0409E012B573F4F41E05B
:105A100050E0BE0166577F4FCE0189579F4F0E94CD
:105A200083159E012B573F4F48E450E06BED7DE01E
:105A3000CE0189579F4F0E9483159E012B573F4FE0
:105A400040E150E06BED77E0CE0189579F4F0E9417
:105A500083158AE097EDA3EABCE3C358DF4F888340
:105A60009983AA83BB83CD57D0409E012B573F4FCC
:105A700044E050E0BE0163587F4FCE0189579F4FED
:105A80000E9483159E012B573F4F4CE050E060E38E
:105A900074E0CE0189579F4F0E9483157E018DE6E9
:105AA000E80EF11CF701108219821A821B821C82F7
:105AB0009E012B573F4F41E050E0B701CE0189577F
:105AC0009F4F0E9483159E012B573F4F44E050E0AB
:105AD0008E010F5F1F4FB801CE0189579F4F0E9463
