:100000000C9410100C9441100C9441100C9441105D
:100010000C9441100C9441100C9441100C9441101C
:100020000C9441100C9441100C9441100C9441100C
:100030000C9441100C9441100C9441100C944110FC
:100040000C9441100C94CA5E0C9441100C94411015
:100050000C9441100C9441100C9496420C94D5775A
:100060000C9441100C94031F0C9441100C944110FB
:100070000C9441100C9441100C9441100C944110BC
:100080000C94D4600C9441100C9441100C944110C9
:100090000C9441100C9441100C9441100C9441109C
:1000A0000C9441100C9441100C94A7600C944110D6
:1000B0000C9441100C9441100C9441100C947A60F3
:1000C0000C9441100C9441100C9441100C9441106C
:1000D0000C9441100C9441100C9441100C9441105C
:1000E0000C9441105673597348734C735273907348
:1000F0005D73617367736B736F73757379737D73FE
:100100009073837387738B738F7694769976A376C7
:10011000AD762677B776BF76C776D176DB76E5768D
:10012000F476FE762677087712771C77084AD73B55
:100130003BCE016E84BCBFFDC12F3D6C74319ABDB6
:1001400056833DDA3D00C77F11BED9E4BB4C3E91DA
:100150006BAAAABE000000803F05A84CCDB2D44EC9
:10016000B93836A9020C50B9918688083CA6AAAACB
:100170002ABE000000803F004E414E494E4954596E
:10018000494E46CDCCCC3D0AD7233C17B7D1387762
:10019000CC2B329595E6241FB14F0A000020410078
:1001A00000C84200401C4620BCBE4CCA1B0E5AAEC2
:1001B000C59D74434F4D4D554E49434154494F4E93
:1001C0000044525952554E004552524F5253004925
:1001D0004E464F004543484F0047322F4733206279
:1001E000616420706172616D65746572730A0048A4
:1001F0006F6D652058592066697273740A00205A21
:100200003A200020593A200042656420583A2000E4
:100210004D65736820706F696E742063616E6E6FD8
:1002200074206265207265736F6C7665640A0025C0
:1002300069730025696D202569730025696820258B
:10024000696D20256973002569642025696820256A
:10025000696D202569730025697920256964202549
:1002600069682025696D20256973005072696E7474
:100270002074696D653A2000D401CF01C801C10125
:10028000B3016F66660044454255473A004B494CFE
:100290004C45442E20004D3131332053006F6B000C
:1002A0002C20002C2000544845524D414C5F5052A8
:1002B0004F54454354494F4E004155544F524550B9
:1002C0004F52545F53445F53544154555300454D6E
:1002D000455247454E43595F5041525345520043A2
:1002E0004153455F4C494748545F4252494748543F
:1002F0004E45535300544F47474C455F4C49474880
:10030000545300534F4654574152455F504F574541
:1003100052004255494C445F50455243454E5400AB
:100320004C4556454C494E475F44415441005A5F45
:1003300050524F4245004155544F4C4556454C0094
:100340005052494E545F4A4F420050524F47524517
:100350005353004155544F5245504F52545F5445EA
:100360004D5000564F4C554D45545249430045455C
:1003700050524F4D0053455249414C5F584F4E5FCC
:10038000584F4646004649524D574152455F4E41EF
:100390004D453A4D61726C696E20312E312E3920F7
:1003A000284769746875622920534F555243455F49
:1003B000434F44455F55524C3A68747470733A2FFA
:1003C0002F6769746875622E636F6D2F4D61726C53
:1003D000696E4669726D776172652F4D61726C69E5
:1003E0006E2050524F544F434F4C5F564552534925
:1003F0004F4E3A312E30204D414348494E455F54CF
:100400005950453A3344205072696E7465722045E4
:10041000585452554445525F434F554E543A31203B
:10042000555549443A63656465326132662D34310D
:1004300061322D343734382D396231322D63353500
:100440006336326633363766660A002F2F20002067
:100450005400205200416363656C65726174696F7A
:100460006E3A205000000000C00000A0C000000054
:1004700000546F6F206661722066726F6D20726526
:10048000666572656E636520706F696E740A00FF41
:10049000FFFF20466C6F773A2000000136372603B5
:1004A000FFFFFF3B3C3D380EFFFFFF3F2E303E136A
:1004B000FFFFFFFF28FF0C080907FFFF1A1C18FFAA
:1004C000FF2A08440A074324221E2C206F7574203B
:1004D0006F662072616E67650A00536572766F20E1
:1004E000003A200020536572766F200050726F62D0
:1004F00065205A204F66667365743A200020643A7E
:100500000020693A0020703A00496E76616C696497
:100510002065787472756465720A0043290A006167
:10052000626C656420286D696E2074656D702000B2
:10053000436F6C64206578747275646573206172B2
:1005400065200020643A0020693A0020703A004E8D
:100550006F2063617365206C696768740A004D657C
:10056000736820706F696E742063616E6E6F7420A3
:100570006265207265736F6C7665640A004D343273
:100580003120696E636F727265637420706172618D
:100590006D657465722075736167650A0045455025
:1005A000524F4D204F4B0A003F5A206F7574206FF9
:1005B000662072616E676520282D323020746F20AE
:1005C0003230290A003A200050726F6265205A20AA
:1005D0004F6666736574004163746976652045787B
:1005E0007472756465723A2000496E76616C696454
:1005F0002065787472756465720A006F6B00205A0A
:100600003A0020593A0020583A00656E6473746FBE
:100610007073206869743A2000656E717565756540
:10062000696E672022004B494C4C45442E200050F7
:1006300072696E7465722073746F70706564206483
:10064000756520746F206572726F72732E20466913
:100650007820746865206572726F7220616E642004
:10066000757365204D39393920746F207265737444
:100670006172742E202854656D7065726174757294
:10068000652069732072657365742E20536574202C
:100690006974206166746572207265737461727426
:1006A000696E67290A004E6F20436865636B737536
:1006B0006D2077697468206C696E65206E756D6257
:1006C00065722C204C617374204C696E653A200071
:1006D000636865636B73756D206D69736D617463B9
:1006E000682C204C617374204C696E653A20004C74
:1006F000696E65204E756D626572206973206E6F3C
:1007000074204C617374204C696E65204E756D6267
:1007100065722B312C204C617374204C696E653AE4
:1007200020004D3131300020496E76616C696420C3
:1007300065787472756465722000000000C0000066
:10074000A0C0000000000000964300009B43000092
:10075000C8435072696E7465722073746F707065EF
:10076000642064756520746F206572726F72732ED9
:100770002046697820746865206572726F72206106
:100780006E6420757365204D39393920746F20727D
:100790006573746172742E202854656D7065726182
:1007A000747572652069732072657365742E2053A9
:1007B0006574206974206166746572207265737453
:1007C000617274696E67290A0053544F5020636147
:1007D0006C6C65642062656361757365206F66206B
:1007E000424C546F756368206572726F72202D20C1
:1007F000726573746172742077697468204D393939
:10080000390A0042696C696E656172204C657665D3
:100810006C696E6720477269643A0A00486F6D69B7
:100820006E67206661696C656400202844525952E5
:10083000554E2900473239204175746F2042656456
:10084000204C6576656C696E67003F20284C2C5201
:100850002C462C4229206F7574206F6620626F75BC
:100860006E64732E0A003F2856296572626F7365A5
:10087000206C6576656C20697320696D706C61759C
:100880007369626C652028302D34292E0A0042617C
:1008900064205A2076616C75650A004E6F2062698B
:1008A0006C696E65617220677269640A0024F4D411
:1008B0003050C38E20C2A24017828B7011127A91E1
:1008C0000D816CD90AA861E108C7586607615143D8
:1008D000061E4B5D05C145A7041A411104093D9848
:1008E00003713931034036DB0265339102D4305451
:1008F00002802E1D02632CEE01752AC501B028A0CE
:1009000001102781018F2564012B244B01E0223443
:1009100001AC211F018D200D01801FFC00841EED04
:1009200000971DDF00B81CD200E61BC600201BBCD0
:1009300000641AB200B219A8000A19A0006A189936
:1009400000D117910040178B00B516840031167E38
:1009500000B31579003A157300C7146F0058146A74
:1009600000EE1366008813630025135E00C7125B58
:10097000006C12570015125400C111510070114F34
:100980000021114B00D61049008D1047004610443D
:100990000002104200C00F4000800F3E00420F3C9A
:1009A00000060F3B00CB0E3800930E37005C0E356F
:1009B00000270E3400F30D3200C10D3100900D30D0
:1009C00000600D2E00320D2D00050D2C00D90C2BD2
:1009D00000AE0C2900850C29005C0C2700350C2783
:1009E000000E0C2600E80B2400C40B2400A00B23EF
:1009F000007D0B23005A0B2100390B2100180B201E
:100A000000F80A1F00D90A1E00BB0A1E009D0A1D1D
:100A100000800A1D00630A1C00470A1B002C0A1BE9
:100A200000110A1A00F7091A00DD091900C4091992
:100A300000AB091900920917007B09180063091718
:100A4000004C09160036091600200916000A09157F
:100A500000F5081500E0081400CC081400B80814CC
:100A600000A4081400900813007D0812006B0813FE
:100A7000005808120046081200340811002308111B
:100A8000001208110001081100F0071000E0071023
:100A900000D0071000C0071000B0070F00A107101A
:100AA0000091070E0083070F0074070F0065070E03
:100AB0000057070E0049070E003B070D002E070EDA
:100AC0000020070D0013070D0006070D00F9060CA6
:100AD00000ED060D00E0060C00D4060C00C8060C64
:100AE00000BC060C00B0060C00A4060B0099060C16
:100AF000008D060B0082060B0077060B006C060BC0
:100B00000061060A0057060B004C060A0042060A5E
:100B10000038060A002E060A0024060A001A060AF1
:100B2000001006090007060A00FD050900F4050982
:100B300000EB050900E2050900D9050900D0050907
:100B400000C7050900BE050900B5050800AD050888
:100B500000A50509009C050800940508008C0508FF
:100B600000840508007C050800740508006C050772
:100B700000650508005D050700560508004E0507DD
:100B80000047050700400508003805070031050744
:100B9000002A050700230507001C050600160507A7
:100BA000000F0507000805060002050700FB040604
:100BB00000F5040700EE040600E8040600E204075E
:100BC00000DB040600D5040600CF040600C90406B5
:100BD00000C3040600BD040600B7040600B1040506
:100BE00000AC040600A6040600A00405009B040651
:100BF0000095040500900406008A0405008504059C
:100C000000800406007A04050075040500700405E0
:100C1000006B04050066040500610405005C040522
:100C20000057040500520405004D04050048040562
:100C300000430405003E0404003A040500350405A1
:100C400000300404002C04050027040400230405DC
:100C5000001E0404001A0404001604050011040414
:100C6000000D040400090405000404040000040449
:100C700000FC030400F8030400F4030400F0030480
:100C800000EC030400E8030400E4030400E00304B0
:100C900000DC030400D8030400D4030400D00304E0
:100CA00000CC030400C8030300C503030024F404BC
:100CB000D9201BC40C5C0E9804C4095F026507713F
:100CC00001F405F900FB04B30048048700C103697F
:100CD000005803550003034500BE023A0084023168
:100CE0000053022A002902250004022000E4011C0E
:100CF00000C8011900AF0117009801140084011306
:100D000000710110006101100051010E0043010D3E
:100D10000036010B002B010B0020010B001501090F
:100D2000000C01090003010800FB000800F30008A3
:100D300000EB000700E4000600DE000600D8000615
:100D400000D2000600CC000500C7000500C2000567
:100D500000BD000400B9000400B5000400B10004A7
:100D600000AD000400A9000400A5000300A20003D8
:100D7000009F0004009B0003009800030095000200
:100D80000093000300900003008D0002008B00031D
:100D90000088000200860002008400030081000237
:100DA000007F0002007D0002007B0002007900024B
:100DB000007700010076000200740002007200015A
:100DC00000710002006F0002006D0001006C000263
:100DD000006A00010069000200670001006600016E
:100DE0000065000100640002006200010061000172
:100DF00000600001005F0002005D0001005C000176
:100E0000005B0001005A0001005900010058000178
:100E10000057000100560001005500010054000178
:100E20000053000000530001005200010051000176
:100E300000500001004F0001004E0000004E000174
:100E4000004D0001004C0001004B0000004B000170
:100E5000004A00010049000100480000004800016C
:100E60000047000100460000004600010045000068
:100E70000045000100440001004300000043000160
:100E8000004200000042000100410000004100015A
:100E900000400001003F0000003F0001003E000054
:100EA000003E0001003D0000003D0001003C00004C
:100EB000003C0000003C0001003B0000003B000142
:100EC000003A0000003A000100390000003900013A
:100ED0000038000000380000003800010037000032
:100EE0000037000100360000003600000036000127
:100EF000003500000035000000350001003400001E
:100F00000034000000340001003300000033000012
:100F10000033000100320000003200000032000106
:100F200000310000003100000031000100300000FD
:100F30000030000000300001002F0000002F0000F2
:100F4000002F0000002F0001002E0000002E0000E6
:100F5000002E0001002D0000002D0000002D0000DB
:100F6000002D0001002C0000002C0000002C0000CF
:100F7000002C0001002B0000002B0000002B0000C3
:100F8000002B0001002A0000002A0000002A0000B7
:100F9000002A0001002900000029000000290000AB
:100FA000002900000029000100280000002800009E
:100FB0000028000000280000002800010027000091
:100FC0000027000000270000002700000027000184
:100FD0000026000000260000002600000026000079
:100FE000002600010025000000250000002500006B
:100FF000002500000025000000250001002400005D
:10100000002400000024000000240000002400014F
:101010000023000000230000002300000023000044
:101020000023000000230000002300010022000034
:101030000022000000220000002200000022000028
:10104000002200010021000000210000002100001A
:10105000002100000021000000210000002100010B
:101060000020000000200000002000000020000000
:1010700000200000002000000020000000200001EF
:10108000001F0000001F0000001F0000001F0000E4
:10109000001F0000001F0000001F0001001E0000D4
:1010A000001E0000001E0000001E0000003930007D
:1010B000003325000087190000B00F0000DB080096
:1010C00000BD040000740200003F01000020746FA6
:1010D0006F206C6F6E6720657874727573696F6EC0
:1010E0002070726576656E7465640A0020636F6CAB
:1010F0006420657874727573696F6E20707265769E
:10110000656E7465640A00627573793A2070617562
:1011100073656420666F7220696E7075740A006270
:101120007573793A2070617573656420666F7220FB
:10113000757365720A00627573793A2070726F6315
:10114000657373696E670A004B494C4C45442E2009
:10115000004B494C4C2063617573656420627920B3
:10116000746F6F206D75636820696E616374697652
:10117000652074696D65202D2063757272656E74CB
:1011800020636F6D6D616E643A20005072696E74F9
:1011900065722068616C7465642E206B696C6C28C4
:1011A000292063616C6C6564210A002020506C6109
:1011B0006E6E657242756666657242797465733AE1
:1011C00020002046726565204D656D6F72793A206A
:1011D00000436F6D70696C65643A204A756E203209
:1011E0003520323031390A00207C20417574686F17
:1011F000723A2053746576652057616767202843EB
:101200006452734B754C4C29204020687474707381
:101210003A2F2F70726574656E6470727573612EEB
:10122000636F2E756B290A00323031382D30382D1E
:10123000303100204C6173742055706461746564B2
:101240003A2000312E312E390A004D61726C696EE0
:101250000020536F66747761726520526573657400
:101260000A00205761746368646F67205265736574
:10127000740A002042726F776E206F757420526579
:101280007365740A002045787465726E616C205233
:10129000657365740A00506F77657255700A007344
:1012A000746172740A0020746F6F206C6F6E672017
:1012B000657874727573696F6E2070726576656E8D
:1012C0007465640A0020636F6C64206578747275BD
:1012D00073696F6E2070726576656E7465640A005E
:1012E00007FFFFFFFFFF0001010101016265640AC2
:1012F000002C2073797374656D2073746F70706542
:101300006421204865617465725F49443A20004257
:1013100065642068656174696E67206661696C65E3
:10132000640048656174696E67206661696C656414
:101330000045312048656174696E67206661696C9B
:1013400065640048656174696E67206661696C65F3
:10135000640070012C0190012701B0012201C0013D
:101360001D01F00118011002130130020E0160028C
:10137000090190020401C002FF000003FA004003CB
:10138000F5008003F000D003EB002004E6007004B9
:10139000E100E004DC004005D700C005D2004006B3
:1013A000CD00D006C8008007C3003008BE00F0089A
:1013B000B900C009B400B00AAF00B00BAA00D00C4D
:1013C000A500000EA000500F9B00C0109600501208
:1013D000910000148C00C0158700B0178200B0196E
:1013E0007D00D01B7800001E730040206E0090220C
:1013F0006900F024640040275F0090295A00E02B28
:101400005500102E500020304B0010324600E033C3
:10141000410090353C001037370070383200A03959
:101420002D00B03A2800A03B2300603C1E00103D78
:101430001900903D1400103E0F00703E0A00C03E9F
:101440000500003F0000403FFBFF803FF6FFC03F2C
:10145000F1FF453120544845524D414C2052554EE4
:10146000415741590042454420544845524D414C52
:101470002052554E4157415900546865726D616C58
:101480002052756E61776179004531204572723A5C
:10149000204D415854454D50004572723A204D41FF
:1014A0005854454D5020424544004D415854454DF7
:1014B0005020747269676765726564004531204524
:1014C00072723A204D494E54454D50004572723A61
:1014D000204D494E54454D5020424544004D494E03
:1014E00054454D50207472696767657265640020C9
:1014F0002F002042403A0020403A003A0A002028BB
:101500006D6D290020204D383531205A005A2D505C
:10151000726F6265204F6666736574002044002018
:10152000490020204D333034205000204400204911
:101530000020204D33303120500050494420736545
:101540007474696E67733A0A00205A00204A0020BA
:10155000204732392057204900205A0020204D349E
:1015600032302053004175746F20426564204C6511
:1015700076656C696E673A0A00205A00205900208F
:10158000204D323036205800486F6D65206F6666FA
:101590007365743A0A00204500205A002059002043
:1015A000580020540020530020204D323035205167
:1015B0000020453C6D61785F655F6A65726B3E0037
:1015C00020583C6D61785F785F6A65726B3E205988
:1015D0003C6D61785F795F6A65726B3E205A3C6D45
:1015E00061785F7A5F6A65726B3E00416476616E16
:1015F0006365643A20513C6D696E5F7365676D6524
:101600006E745F74696D655F75733E20533C6D69E0
:101610006E5F66656564726174653E20543C6D69F9
:101620006E5F74726176656C5F6665656472617425
:10163000653E0020540020520020204D32303420DE
:101640005000416363656C65726174696F6E202838
:10165000756E6974732F7332293A20503C70726929
:101660006E745F616363656C3E20523C7265747298
:101670006163745F616363656C3E20543C747261A6
:1016800076656C5F616363656C3E0A0020450020EF
:101690005A0020590020204D3230312058004D6131
:1016A00078696D756D20416363656C6572617469FD
:1016B0006F6E2028756E6974732F7332293A0A0091
:1016C000204500205A0020590020204D3230332080
:1016D00058004D6178696D756D206665656472614D
:1016E0007465732028756E6974732F73293A0A0024
:1016F000204500205A0020590020204D3932205822
:101700000053746570732070657220756E69743A49
:101710000A0020204D3230302044300A0020204D75
:101720003230302044002044697361626C65640A81
:101730000046696C616D656E742073657474696EC2
:1017400067733A002020473231202020203B00548C
:101750005249474745524544006F70656E003A2034
:10176000007A5F6D696E00795F6D696E00785F6DFC
:10177000696E005265706F7274696E6720656E6481
:1017800073746F70207374617475730A00000000C5
:101790000100000001000080005555550000004088
:1017A0000033333300AAAA2A004992240000002003
:1017B00000C7711C0099991900D14517005555159E
:1017C000003BB11300244912001111110000001058
:1017D000000F0F0F00E3380E0043790D00CCCC0C46
:1017E00000C3300C00E8A20B0064210B00AAAA0A77
:1017F00000703D0A009DD80900427B09009224092F
:1018000000DCD308008888080010420800000008A7
:1018100000F0C107008787070075500700711C079B
:10182000003EEB0600A1BC06006990060066660655
:1018300000703E06006118060017F4050074D1051B
:10184000005BB00500B290050062720500555505B9
:101850000078390500B81E0500050505004EEC04AA
:101860000087D40400A1BD040090A704004992049D
:1018700000C17D0400EE690400C75604004444041E
:10188000005C320400082104004110040000000440
:10189000003FF00300F8E0030026D20300C3C303B7
:1018A00000CCB503003AA803000A9B0300388E035E
:1018B00000C08103009F750300D0690300505E03E0
:1018C000001D53030034480300913D0300333303EC
:1018D0000016290300381F030097150300300C037E
:1018E00000030303000BFA020049F10200BAE80208
:1018F000005CE002002DD802002DD0020059C80281
:1019000000B0C0020031B90200DAB10200AAAA0296
:1019100000A0A30200BC9C0200FA9502005C8F02AA
:1019200000DF88020082820200457C0200277602E6
:101930000027700200436A02007C640200D05E024D
:10194000003F590200C853020050726F74656374FF
:1019500065642050696E0A0020573A0020573A000B
:10196000205A3A0020593A0020436F756E7420586F
:101970003A0020453A00205A3A0020593A00583A95
:10198000003A004361703A005741524E494E472198
:10199000204C6F77205A204A65726B206D61792048
:1019A0006C65616420746F20756E77616E74656418
:1019B000207061757365732E0A00205A002059004B
:1019C000580020204D61783A2000205A002059000C
:1019D000580020204D696E3A20004F6E20004F665F
:1019E0006600536F667420656E6473746F70733A2B
:1019F00020004F66660A0046616465204865696795
:101A000068742000426564204C6576656C696E6779
:101A100020004661696C656420746F20656E6162A8
:101A20006C6520426564204C6576656C696E670A5A
:101A300000526573656E643A2000FFFDFCFAF8F60B
:101A4000F4F2F0EEECEAE9E7E5E3E1E0DEDCDAD936
:101A5000D7D5D4D2D0CFCDCBCAC8C7C5C3C2C0BFDB
:101A6000BDBCBAB9B7B6B4B3B2B0AFADACAAA9A851
:101A7000A6A5A4A2A1A09E9D9C9A9998979594939F
:101A800092908F8E8D8B8A898887868483828180CD
:101A90007F7E7D7B7A797877767574737271706FDB
:101AA0006E6D6C6B6A696867666564636261605FCE
:101AB0005E5D5C5B5A5958585756555453525150B5
:101AC000504F4E4D4C4B4A4A494847464645444381
:101AD000424241403F3E3E3D3C3B3B3A393838373D
:101AE000363535343332323130302F2E2E2D2C2BEB
:101AF0002B2A29292827272625252423232221218B
:101B000020201F1E1E1D1C1C1B1B1A19191818171C
:101B10001616151514131312121111100F0F0E0EA5
:101B20000D0D0C0C0B0A0A09090808070706060523
:101B300005040403030202010000000070420000DB
:101B4000704200008041000000005761726E696EB3
:101B5000673A20486F6D696E672042756D7020444A
:101B6000697669736F72203C20310A00020204001A
:101B700000A0400000A0400000004000009743008B
:101B8000809D430000C8434572726F72207772696E
:101B900074696E6720746F20454550524F4D210A7D
:101BA00000454550524F4D206461746173697A65F8
:101BB000206572726F722E0A00290A002062797401
:101BC00065733B20637263200053657474696E67AC
:101BD000732053746F726564202800290A00206204
:101BE000797465733B2063726320002073746F7295
:101BF00065642073657474696E67732072657472AE
:101C00006965766564202800202863616C63756CC3
:101C10006174656429210A0020213D20004545505A
:101C2000524F4D20435243206D69736D6174636858
:101C3000202D202873746F72656429200020536959
:101C40007A653A2000496E6465783A2000204D613B
:101C5000726C696E3D563535290A0028454550524B
:101C60004F4D3D00454550524F4D2076657273698A
:101C70006F6E206D69736D617463682000486172D6
:101C800064636F6465642044656661756C74205399
:101C9000657474696E6773204C6F616465640A00D3
:101CA000D0070000D00700006400000010270000EB
:101CB0000000964300009643000048420000204286
:101CC000F43DA042F43DA04296E3C7430080DE43CA
:101CD00000002100240027002A002D0030003300DE
:101CE00001010000040107010A0100002200250093
:101CF00028002B002E0031003400020100000501F5
:101D000008010B01000020002300260029002C0000
:101D10002F00320000010000030106010901050542
:101D20000505070508080808020202020A0A080851
:101D3000040404040101010101010101030303037F
:101D400003030303040707070C0C0C0C0C0C0C0C0E
:101D50000202020206060606060606060B0B0B0B1F
:101D60000B0B0B0B01021020200808102040102044
:101D7000408002010201080402010102040810204F
:101D8000408080402010080402018004020180404D
:101D900020100804020108040201010204081020B6
:101DA0004080010204081020408000000A0B020954
:101DB0000C0D0E08070304010000000000000000E5
:101DC0000000000000000000000000000000000013
:101DD00000000000000012111000000000000000D0
:101DE00000000000000000000000000000000000F3
:101DF000556E6B6E6F776E20636F6D6D616E643ABA
:101E000020220050726F62696E67206661696C659E
:101E1000640A00205A3A200020593A2000426564A2
:101E200020583A20002066697273740A005A0059DB
:101E3000005800486F6D6520006563686F3A004583
:101E400072726F723A004B64200023646566696E9B
:101E5000652044454641554C545F004B69200023A2
:101E6000646566696E652044454641554C545F0083
:101E70004B70200023646566696E652044454641C9
:101E8000554C545F00504944204175746F74756E11
:101E9000652066696E6973686564212050757420D9
:101EA000746865206C617374204B702C204B692022
:101EB000616E64204B6420636F6E7374616E747323
:101EC0002066726F6D2062656C6F7720696E746F2B
:101ED00020436F6E66696775726174696F6E2E68F4
:101EE0000A00504944204175746F74756E65206610
:101EF00061696C6564212074696D656F75740A0091
:101F0000453120544845524D414C2052554E415781
:101F100041590042454420544845524D414C2052BD
:101F2000554E4157415900546865726D616C20529D
:101F3000756E617761790045312048656174696E1D
:101F400067206661696C656400426564206865614C
:101F500074696E67206661696C65640048656174C8
:101F6000696E67206661696C656400504944204170
:101F700075746F74756E65206661696C6564212087
:101F800054656D706572617475726520746F6F2031
:101F9000686967680A00204B643A2000204B693A60
:101FA0002000204B703A20000A20436C6173736953
:101FB0006320504944200A002054753A2000204BE9
:101FC000753A2000206D61783A2000206D696E3AE4
:101FD000200020643A200020626961733A2000509A
:101FE0004944204175746F74756E65206661696C33
:101FF000656421204261642065787472756465723D
:10200000206E756D6265720A0050494420417574F6
:102010006F74756E652073746172740A00008D9A16
:1020200011241FBECFEFD1E2DEBFCDBF00E00CBF59
:1020300013E0A0E0B2E0E2E8FCE401E00BBF02C084
:1020400007900D92A031B107D9F72FE0A0E1B3E0DE
:1020500001C01D92A930B207E1F710E1C0E1D0E163
:1020600000E006C021970109802FFE010E94F6A51D
:10207000CF30D10780E00807A9F70E9409840C94AB
:102080003FA60C9400008091D7079091D80798172D
:1020900059F0E92FF0E0E95AF84F80819F5F9F7770
:1020A0009093D80790E008958FEF9FEF0895CF9217
:1020B000DF92EF920F931F93CF93DF93CDB7DEB7ED
:1020C00060970FB6F894DEBF0FBECDBFE0902E0E26
:1020D000EFE2FEE080859185A285B385448155813C
:1020E00066817781008111812281338109831A837E
:1020F0002B833C834D835E836F83788789879A87A0
:10210000AB87BC871D861E861F86188AAE01475F77
:102110005F4FBE016B5F7F4FCE0101960E94D8409A
:10212000CE010D966C010CE412E02BE33EE0AE0113
:10213000475F5F4FBE016B5F7F4F0C970E9470320D
:1021400060960FB6F894DEBF0FBECDBFDF91CF9182
:102150001F910F91EF90DF90CF900895FF920F9312
:102160001F93CF93DF93FC0120812B3319F1D09182
:10217000F905D430F8F4F62EBC01C0910F060C2FEF
:1021800010E0F0E6CF9FC001112489589B4F0E94B8
:102190001FA6F801E459FB4FF082CF5FC43018F45A
:1021A000C0930F0602C010920F06DF5FD093F905AF
:1021B00081E001C080E0DF91CF911F910F91FF90EE
:1021C0000895CF92DF92EF92FF9260913003709169
:1021D0003103072E000C880B990B0E94CE9E6B01D9
:1021E0007C012DEB37E346E855EB0E9434A587FDD3
:1021F0000AC02DEB37E346E855E3C701B6010E945C
:10220000C89E18164CF4A701960160E070E080E8C3
:102210009FE30E94EAA303C060E070E0CB016093FB
:10222000D9077093DA078093DB079093DC076091FE
:10223000320370913303072E000C880B990B0E9418
:10224000CE9E6B017C012DEB37E346E855EB0E94F7
:1022500034A587FD0AC02DEB37E346E855E3C701F7
:10226000B6010E94C89E18164CF4A701960160E0C2
:1022700070E080E89FE30E94EAA303C060E070E0A2
:10228000CB016093DD077093DE078093DF079093A7
:10229000E007FF90EF90DF90CF900895BC0189EEAA
:1022A0009EE00E94CC5F67E771E080E090E00C94D4
:1022B000F04A8091770690917806A0917906B091C6
:1022C0007A0680934C0290934D02A0934E02B093F5
:1022D0004F028091750690917606909351028093FB
:1022E0005002089580914C0290914D02A0914E02AF
:1022F000B0914F028093770690937806A093790669
:10230000B0937A0680915002909151029093760694
:102310008093750684E690E090935102809350027A
:1023200008952F923F924F925F926F927F928F9279
:102330009F92AF92BF92CF92DF92EF92FF920F9354
:102340001F93CF93DF93CDB7DEB72A970FB6F894DC
:10235000DEBF0FBECDBF2B013C012D833E834F83DB
:10236000588747015801DA86C98680914C029091BE
:102370004D02A0914E02B0914F0289839A83AB83A4
:10238000BC83D6011C9111960C91119712963C902A
:10239000129713962C9020E030E0A901612F702F46
:1023A000832D922D0E94C89E81110AC0E2E4FBE1B8
:1023B00085919591A591B491182F092F3A2E2B2E26
:1023C000A50194016091370E7091380E8091390EFD
:1023D00090913A0E0E94C89E87FF15C0812F902FC2
:1023E000A32DB22D80934C0290934D02A0934E02E8
:1023F000B0934F028092370E9092380EA092390E11
:10240000B0923A0E54DEE985FA85C080D180E28030
:10241000F38020E030E0A901C701B6010E94C89E08
:10242000811108C0C0904702D0904802E090490254
:10243000F0904A02C0924C02D0924D02E0924E02BD
:10244000F0924F0240922F0E5092300E6092310E59
:102450007092320E8D819E81AF81B8858093330E4C
:102460009093340EA093350EB093360E20DE20915B
:10247000370E3091380E4091390E50913A0EC50109
:10248000B4010E94C89E87FF15C0812F902FA32DF5
:10249000B22D80934C0290934D02A0934E02B093C4
:1024A0004F028092370E9092380EA092390EB09261
:1024B0003A0EFDDD0E94264089819A81AB81BC8164
:1024C00080934C0290934D02A0934E02B0934F0222
:1024D0002A960FB6F894DEBF0FBECDBFDF91CF9125
:1024E0001F910F91FF90EF90DF90CF90BF90AF9032
:1024F0009F908F907F906F905F904F903F902F9024
:102500000895CF92DF92EF92FF920F931F936B018A
:10251000FC01E080F18002811381EFE2FEE0248182
:102520003581468157816081718182819381F9DE95
:102530001F910F91FF90EF90DF90CF900895CF9271
:10254000DF92EF92FF92CF93DF93CDB7DEB728975C
:102550000FB6F894DEBF0FBECDBF20E030E040E7FD
:1025600051E46091370E7091380E8091390E909140
:102570003A0E0E94C89E8823E1F01D821E821F82AF
:102580001886C12CD12C80E7E82E81E4F82EC98270
:10259000DA82EB82FC82BE016B5F7F4FCE01019637
:1025A000B0DFC092370ED092380EE092390EF09222
:1025B0003A0E28960FB6F894DEBF0FBECDBFDF915E
:1025C000CF91FF90EF90DF90CF900895BF92CF9280
:1025D000DF92EF92FF920F931F93CF93DF93CDB7CC
:1025E000DEB728970FB6F894DEBF0FBECDBF90912F
:1025F0005207981709F476C0B82E80E090E0A0E763
:10260000B1E48D839E83AF83B887C090110ED090C4
:10261000120EE090130EF090140E20E030E0A901AD
:10262000C701B6010E94C89E87FF0CC0A701960192
:1026300060E070E080E791E40E940DA36D837E83EB
:102640008F83988720E030E048EC53E46D817E81F1
:102650008F8198850E9434A5181644F480E090E09C
:10266000A8ECB3E48D839E83AF83B8872D813E8130
:102670004F8158856091370E7091380E8091390ED8
:1026800090913A0E0E94C89E87FF0AC019821A8252
:102690001B821C82BE016F5F7F4FCE01059631DF2A
:1026A00060912F0E7091300E8091310E9091320E0C
:1026B0002091330E3091340E4091350E5091360EEC
:1026C00019821A821B821C82E090370EF090380E1D
:1026D0000091390E10913A0EFE0131966F0121DE04
:1026E000B092520780E028960FB6F894DEBF0FBE76
:1026F000CDBFDF91CF911F910F91FF90EF90DF90B1
:10270000CF90BF9008950F931F93CF93DF9394E0E2
:10271000899FE00111248E010B5F114FFE01E953E7
:10272000FC4FDE01A85BBC4F2D913D914D915C911A
:1027300060817181828193810E940EA3F801608380
:10274000718382839383FE01E65CF84F85919591B6
:10275000A591B491FE01E051F24F80839183A28351
:10276000B383FE01EA5BF84F85919591A591B491F1
:10277000C55CDD4F88839983AA83BB83DF91CF91AA
:102780001F910F9108950F931F93CF93DF93CDB7B0
:10279000DEB72C970FB6F894DEBF0FBECDBFEFE2C9
:1027A000FEE080859185A285B3854481558166814F
:1027B0007781008111812281338109831A832B83E0
:1027C0003C834D835E836F83788789879A87AB8745
:1027D000BC87AE01475F5F4FBE016B5F7F4FCE018D
:1027E00001960E94D8402BE33EE0AE01475F5F4F69
:1027F000BE016B5F7F4FCE0101960E94FC622C965A
:102800000FB6F894DEBF0FBECDBFDF91CF911F9101
:102810000F9108952F923F924F925F926F927F9205
:102820009F92AF92BF92CF92DF92EF92FF920F935F
:102830001F93CF93DF93CDB7DEB764970FB6F894AD
:10284000DEBF0FBECDBF1A012B01922EF32EC82E74
:10285000D12CF601E157FB4FE491AA24A3941E1654
:102860000CF4A12CBB24B39420E030E0A901C201F8
:10287000B1010E9434A518160CF0B12CCC0CDD1C53
:10288000CC0CDD1CC601815D914F3C01FC01108226
:1028900011821282138277DFF30120823182428219
:1028A0005382E0902E0E20E030E0A901B801892D7E
:1028B0009F2D0E94C89E81110AC0F601E65CF44E6D
:1028C00085919591A591B4918C019A2EFB2EC8010A
:1028D000A92DBF2D898B9A8BAB8BBC8B8091370E2A
:1028E0009091380EA091390EB0913A0E4091330E6E
:1028F0005091340E6091350E7091360E00912F0E6E
:102900001091300E2091310E3091320E09831A83CE
:102910002B833C834D835E836F83788789879A8777
:10292000AB87BC871D861E861F86188AAE01475F4F
:102930005F4FBE016B5F7F4FCE0101960E94D84072
:10294000CE010D966C018E010F5E1F4F2BE33EE012
:10295000AE01475F5F4FBE016B5F7F4F0C970E94D8
:1029600070320E942640AB1459F08091F7058823FD
:1029700019F01092F70504C08CE198E00E94A32B97
:1029800064960FB6F894DEBF0FBECDBFDF91CF9136
:102990001F910F91FF90EF90DF90CF90BF90AF907D
:1029A0009F907F906F905F904F903F902F900895F1
:1029B0001F93CF93DF93CDB7DEB72C970FB6F89464
:1029C000DEBF0FBECDBF882331F0209130033091A0
:1029D0003103232BA1F19091470E891781F1182F14
:1029E0000E9426408CE0E6E5F2E0DE0111960190BF
:1029F0000D928A95E1F7CE0101960E94F55310934E
:102A0000470E111117C00E94D95388E893E00E9425
:102A1000A1408091900390919103A0919203B09175
:102A200093038093370E9093380EA093390EB09392
:102A30003A0E04C08FE29EE00E94A140A4DE2C96D4
:102A40000FB6F894DEBF0FBECDBFDF91CF911F91BF
:102A50000895CF92DF92EF92FF9280E0A9DF10926B
:102A6000330310923203109231031092300310920C
:102A7000370310923603109235031092340347E067
:102A800054E025E0C12CD12C80ECE82E8FE7F82E05
:102A900080E090E0FA01E80FF91FC082D182E28263
:102AA000F382049684319105A9F721504C5E5F4F63
:102AB0002111EECFFF90EF90DF90CF90089580919D
:102AC0002E0390912F03009731F04AE050E060E030
:102AD00070E00C941C9C60E070E0CB010895EFDF87
:102AE00097FD0AC0ECDF6F3F71058105910509F084
:102AF0002CF4E5DF862F089580E008958FEF089588
:102B000080912E0390912F03892B31F0E8DF91E023
:102B1000811103C090E001C091E0892F08950F93C7
:102B20001F93CF9380912E0390912F03009711F163
:102B3000FC018F01C1912C2F2F7DA9F0C53411F01C
:102B4000C536B9F7F801108260E070E080912E037D
:102B500090912F030E94C99AF801C083562F472FE6
:102B6000382F292F0BC060E070E0CF911F910F919B
:102B70000C94C99A50E040E030E020E0652F742FBB
:102B8000832F922FCF911F910F91089581548A31F5
:102B900008F042C0E82FF0E040912A0350912B0347
:102BA00060912C0370912D0304C07695679557951D
:102BB00047958A95D2F7842F817040FF2FC0E05F40
:102BC000FC4F9081992309F1E091020EF091030EE0
:102BD000E90FF11D908120ED290F2A3098F09E32E7
:102BE00011F491810CC09D3211F09B3271F49181EE
:102BF00020ED290F2A3030F09E3239F49281905323
:102C00009A3018F42E2F9F2F02C020E090E02093DE
:102C10002E0390932F03089580E008950895B6DF62
:102C2000882341F081E020912E0330912F03232B44
:102C300009F480E008959F92AF92BF92CF92DF9205
:102C4000EF92FF920F931F93CF93DF9382E5A82E0D
:102C500082E0B82E0EE11EE0CFE2DEE095E0C92E64
:102C60009EE0D92E20E7E22E24E0F22E912CF501F1
:102C700081915F018BDF882301F151DFF701208112
:102C8000211104C020917404222339F02881398154
:102C90004A815B810E940EA30AC0F3E09F1639F0BF
:102CA000F60120813181428153810E940DA3F801F8
:102CB000608371838283938309C088819981AA810B
:102CC000BB81F80180839183A283B38393940C5FCB
:102CD0001F4F2496F4E0CF0ED11C2FEFE21AF20A18
:102CE00084E09812C4CF86E49ADF8823B9F017DF16
:102CF00020E030E0A9010E9434A518167CF40FDF13
:102D000020E030E040E752E40E94EAA360934C02E6
:102D100070934D0280934E0290934F02DF91CF91BA
:102D20001F910F91FF90EF90DF90CF90BF90AF90E9
:102D30009F90089580E1EFE2FEE0AEE1BEE00190F9
:102D40000D928A95E1F708959091C00095FFFCCF10
:102D50008093C60008951F93CF93DF93882329F0B3
:102D60004A9908C08AE090E002C08AE590E096DACD
:102D700010E049C080EA90E091DA8AE090E08EDAD3
:102D80008AE590E08BDA6CED75E080E090E00E94DF
:102D9000F04A4A9BE7CFEFE3FEE18491EF012196F1
:102DA000882319F0D1DFFE01F8CFE9ECF7E0849138
:102DB000EF012196882319F0C7DFFE01F8CF0E94AA
:102DC000654310910D021123E9F0EFE3FEE18491D8
:102DD000EF012196882319F0B7DFFE01F8CFE2E575
:102DE000F7E08491EF012196882319F0ADDFFE0111
:102DF000F8CF6EE571E080E090E00E94F04A10921A
:102E00000D0201C011E0812FDF91CF911F91089534
:102E10001F93CF93DF93CDB7DEB728970FB6F89403
:102E2000DEBF0FBECDBF69837A838B839C832D83E6
:102E30003E834F83588781E08EDF882311F081E045
:102E40002CC0BE016B5F7F4FCE0101965ADB809193
:102E5000F705182F147082FF04C080E07CDF811119
:102E6000EECF1092F7050E94D95388E893E00E94B4
:102E7000A1408091900390919103A0919203B09111
:102E800093038093370E9093380EA093390EB0932E
:102E90003A0E79DC81E0111180E028960FB6F894A3
:102EA000DEBF0FBECDBFDF91CF911F910895CF92AE
:102EB000DF92EF92FF920F931F93CF93DF93809156
:102EC000F905843008F01DC1DED8AC0197FD19C1A9
:102ED000982F20914D0E30914E0E8A3019F09D3072
:102EE00009F0DDC0109274062115310519F40E9415
:102EF000A147E5CFF901EC5EF94F108210924E0E1A
:102F000010924D0EC4E1D6E0FE018191803211F4A1
:102F1000EF01FACF8E3409F07EC0209709F47BC010
:102F200062E277E0CE010E94809E8C01892B41F005
:102F30006EE470E0CE0104960E940BA6009709F49F
:102F4000CE014AE050E060E070E001960E941C9CD7
:102F500060931006709311068093120690931306E7
:102F6000C0904F0ED090500EE090510EF090520E47
:102F70002FEFC21AD20AE20AF20A6C157D058E05FD
:102F80009F0529F0012B19F48FEE96E02AC06AE222
:102F900070E0CE010E9434A69C01009701F1982FA9
:102FA0009C1B10E0992339F09150FE01E90FF11DAF
:102FB00080811827F7CF4AE050E060E070E0C90157
:102FC00001960E941C9C012F10E020E030E0601769
:102FD00071078207930779F080ED96E002C086EAD8
:102FE00096E0DF91CF911F910F91FF90EF90DF90CE
:102FF000CF900C941F788091100690911106A091AB
:103000001206B091130680934F0E9093500EA0932A
:10301000510EB093520E80910D0281111EC067E4D3
:1030200070E0CE010E940BA60097B9F04AE050E094
:1030300060E070E001960E941C9C6430710581057F
:10304000910558F4EFE2F6E084918F010F5F1F4F76
:10305000882319F079DEF801F7CF61EF72E0CE0135
:103060000E9416A6892B11F410920E0266EF72E0F0
:10307000CE010E9416A6892B21F486E296E00E94DA
:10308000A32B6BEF72E0CE010E9416A6892B11F4E0
:103090000E94415661E084E196E060D810CF2F3560
:1030A00031050CF00CCF9C35C1F40E94431097FD04
:1030B00006CF20917406211102CF20914D0E309140
:1030C0004E0EA9014F5F5F4F50934E0E40934D0E31
:1030D000F901EC5EF94F8083F2CE9B3319F481E065
:1030E00080937406809174068111E9CEC90101961E
:1030F00090934E0E80934D0EF901EC5EF94F408394
:10310000DECEDF91CF911F910F91FF90EF90DF9076
:10311000CF900895BF92CF92DF92EF92FF920F93DC
:103120001F93CF93DF93CDB7DEB76E970FB6F894AA
:10313000DEBF0FBECDBF60910D0670910E0661150A
:10314000710551F14DE150E0CE0101967C010E94E4
:10315000719E1E8EF7018F010E191F09B190BB20C1
:1031600021F19AE0B912F7CF20C0B70189E196E0CA
:103170000E94546182E2E8DD8AE0E6DDBB2059F17D
:103180000F5F1F4F80910D0690910E06080F191FBB
:1031900010930E0600930D0681E020910D063091EC
:1031A0000E06232BD9F480E019C0F701E00FF11FC0
:1031B000108260E0C7010E94AE10882369F3E9E342
:1031C000FEE184916F019FEFC91AD90A882369F241
:1031D000BBDDF601F6CF00E010E0DACF6E960FB659
:1031E000F894DEBF0FBECDBFDF91CF911F910F913D
:1031F000FF90EF90DF90CF90BF9008958F929F92B5
:10320000AF92BF92EF92FF920F931F93CF93DF93F2
:10321000CDB7DEB7A0970FB6F894DEBF0FBECDBF17
:10322000611571058105910589F100E0842E912CCD
:10323000A12CB12C102FEE24E394F12CEC0EFD1EEA
:10324000E00EF11C07FDFA94A50194010E94B6A2BC
:10325000F7016083B901CA010F5F6115710581052E
:10326000910541F71F3F21F1E1E0F0E0EC0FFD1F78
:10327000E10FF11D17FDFA9580818A3010F097E378
:1032800001C090E3890F60DD1150ECCF80E3A09680
:103290000FB6F894DEBF0FBECDBFDF91CF911F9167
:1032A0000F91FF90EF90BF90AF909F908F904CCD7B
:1032B000A0960FB6F894DEBF0FBECDBFDF91CF91C1
:1032C0001F910F91FF90EF90BF90AF909F908F90C4
:1032D0000895EF92FF920F931F93CF93DF937C019A
:1032E00084E59DDCD82F882321F1F9DBC82F18163F
:1032F000E4F4E9E3FEE184918F010F5F1F4F88231F
:1033000019F022DDF801F7CF8DE41EDDB70180E072
:1033100090E04AE073DF6C2FCC0F770B87E297E0E9
:103320000E943B618AE010DD08C08093FA03D0E080
:1033300004C080912E0E8093FA038D2FDF91CF91E0
:103340001F910F91FF90EF900895CF92DF92EF922F
:10335000FF926B017C0197FF0AC08DE2F5DCF094CF
:10336000E094D094C094C11CD11CE11CF11C4AE033
:10337000C701B601FF90EF90DF90CF903FCF8F92C3
:103380009F92AF92BF92CF92DF92EF92FF92CF9334
:103390006B017C01B42E20E030E0A9010E94C89EA0
:1033A00087FF06C08DE2D0DCF7FAF094F7F8F094CE
:1033B000C0E060E070E080E09FE3CB1541F02DECD1
:1033C0003CEC4CEC5DE30E942D9FCF5FF6CF9B0160
:1033D000AC01C701B6010E940EA36B017C010E94E3
:1033E00057A44B015C014AE009DFCC2379F1C50108
:1033F000B4010E94CC9E9B01AC01C701B6010E94A2
:103400000DA36B017C018EE29FDC20E030E040E206
:1034100051E4C701B6010E942D9F4B015C010E943F
:1034200052A46B01770FEE08FF08C701B6018DDFCC
:10343000C701B6010E94CE9E9B01AC01C501B4013B
:103440000E940DA36B017C01C150F9F6CF91FF9052
:10345000EF90DF90CF90BF90AF909F908F900895A6
:103460008F929F92AF92BF92CF92DF92EF92FF9294
:103470000F931F93CF93DF93E3E0F8E08491EF0184
:103480002196882319F060DCFE01F8CFC12CD12CE5
:103490007601C0E080E258DCCF5FC630D9F7C701C3
:1034A000B60153DF8FEFC81AD80AE80AF80A95E088
:1034B000C916D104E104F10461F78AE045DC07E0B4
:1034C00014E0C12CD12C760180E23EDCC701B601AC
:1034D0003CDFC0E0D0E080E237DCF801EC0FFD1FFC
:1034E00080809180A280B380A5019401C501B401C0
:1034F0000E94BAA5811110C020E030E0A901C501E9
:10350000B4010E9434A587FD02C08BE21DDC43E0BC
:10351000C501B40134DF08C0B12C80E215DCB394DE
:103520008DE396E0B912FACF6496C436D10599F6C8
:103530008AE00ADC8FEFC81AD80AE80AF80A0C5F9A
:103540001F4F95E0C916D104E104F10409F0BCCF86
:103550008AE0DF91CF911F910F91FF90EF90DF9064
:10356000CF90BF90AF909F908F90EECB2F923F92D5
:103570004F925F926F927F928F929F92AF92BF9283
:10358000CF92DF92EF92FF920F931F93CF93DF932F
:10359000CDB7DEB7A5970FB6F894DEBF0FBECDBF8F
:1035A0000E94D478811116C48091470E882351F06F
:1035B0008FE435DB882311F0A3DA02C08FE4E6DA6A
:1035C000811108C41091470E87E5E0DA882309F4D9
:1035D00018C18091300390913103892BC1F4EFE33E
:1035E000FEE184918F010F5F1F4F811103C0EBE952
:1035F000F8E003C0A9DBF801F4CF84918F010F5FDD
:103600001F4F882309F4E6C39FDBF801F6CF8AE554
:1036100006DB882371F083DA20910D0E30910E0EB7
:1036200040910F0E5091100E0E940DA34B015C01B2
:1036300008C08090370E9090380EA090390EB09050
:103640003A0E20E030E040E251ECC501B4010E94A6
:1036500034A587FD0AC020E030E040E251E4C50116
:10366000B4010E94C89E1816C4F4EFE3FEE18491F1
:103670008F010F5F1F4F811103C0EEE8F8E003C018
:1036800063DBF801F4CF84918F010F5F1F4F882314
:1036900009F4A0C359DBF801F6CF88E5C0DA882326
:1036A00011F03DDA04C060E070E080EC9FE720910B
:1036B000050E3091060E4091070E5091080E0E94A3
:1036C0000DA36B017C0189E5AADA882311F027DAC2
:1036D00004C060E070E080EC9FE72091090E30911B
:1036E0000A0E40910B0E50910C0E0E940DA32B015F
:1036F0003C0189E494DA882311F0F1D901C08FEFFD
:10370000382E8AE48CDA882311F0E9D901C08FEFD2
:10371000082FA7019601C701B6010E94BAA5811121
:103720004EC0A3019201C301B2010E94BAA581114A
:1037300046C06091340370913503072E000C880B4E
:10374000990B0E94CE9E9B01AC01C701B6010E945D
:103750000DA320E030E0A9010E940EA320E030E09C
:10376000A9010E94EAA30E9452A4F62E609136039A
:1037700070913703072E000C880B990B0E94CE9E88
:103780009B01AC01C301B2010E940DA320E030E017
:10379000A9010E940EA320E030E0A9010E94EAA343
:1037A0000E9452A4EF2DE5300CF0E4E03E2EE7FD40
:1037B000312C062F65300CF004E007FD00E024E01A
:1037C000231508F407C3063008F004C380E0F0D8DE
:1037D000332D85E03802F0011124E00FF11D07FDC3
:1037E000FA95EE0FFF1FEE0FFF1FE95FFB4F808280
:1037F0009182A282B382812FDBD8112309F4EAC21D
:10380000B3C08AE4C3D9882309F4B1C022D9E2C283
:10381000E418F508F7FE03C033E0E30EF11C57018E
:10382000B594A794B594A794B5010B2C000C880B04
:10383000990B0E94CE9E6A8F7B8F8C8F9D8FC618AE
:10384000D708D7FE03C083E0C80ED11C460195946B
:10385000879495948794B401092C000C880B990BDC
:103860000E94CE9E6B017C010E9472116091300318
:1038700070913103072E000C880B990B0E94CE9E8D
:103880009B01AC016A8D7B8D8C8D9D8D0E94C89EA5
:10389000811168C16091320370913303072E000CCF
:1038A000880B990B0E94CE9E9B01AC01C701B6010B
:1038B0000E94C89E811156C18091340390913503B6
:1038C0004816590609F04EC180913603909137038E
:1038D0006816790609F046C185E4A1D9882309F460
:1038E00055C10ED9811109C292E0998B212C312C3E
:1038F000A1E0A88B812C912C5401B1E0BE87E5E0BA
:10390000ED871986888991E08927888BC101032C6E
:10391000000CAA0BBB0B8AA39BA3ACA3BDA39D85E4
:10392000A9859A1337C1F4E02F16310449F0A50197
:103930009401C501B4010E94BAA5882309F437C2D5
:1039400080E00E94E612882309F4DAC1812F30D882
:103950000E94591181E0809375048091470E811176
:103960000E94C3130E949F120E941D5833C286E515
:1039700056D9882309F4DFC0A2D87B876A87AA8535
:10398000BB85159760F0E6E6F8E084918F010F5F44
:103990001F4F882309F41EC2D7D9F801F6CF84E45B
:1039A0003ED9882311F0ACD802C084E4EFD88C87CC
:1039B0008AE535D9882331F0B2D86E8F7F8F88A3FE
:1039C00099A304C01E8E1F8E18A219A283E527D9C1
:1039D000882311F0A4D804C060E070E08AEF95E479
:1039E00020E030E040E752E40E94EAA360934702FF
:1039F000709348028093490290934A028CE40FD955
:103A0000882379F08CD82091050E3091060E4091D4
:103A1000070E5091080E0E940DA30E9452A42B0184
:103A200003C0EAE14E2E512C82E5F9D8882379F0C3
:103A300076D82091050E3091060E4091070E5091D8
:103A4000080E0E940DA30E9452A47B0104C072E2E2
:103A5000E72EFF24F39486E4E2D8882379F05FD838
:103A60002091090E30910A0E40910B0E50910C0ED0
:103A70000E940DA30E9452A43B0103C06AE0662E7F
:103A8000712C82E4CCD8882379F049D82091090E92
:103A900030910A0E40910B0E50910C0E0E940DA316
:103AA0000E9452A46B0104C055E1C52EDD24D394BD
:103AB000B301072C000C880B990B0E94CE9E6A8BD9
:103AC0007B8B8C8B9D8BB201052C000C880B990B8A
:103AD0000E94CE9E6E8B7F8B888F998F2A893B891F
:103AE0004C895D890E94D86B811103C0EAE4F8E03B
:103AF00018C0B6010D2C000C880B990B0E94CE9EAD
:103B00004B015C01B7010F2C000C880B990B0E9434
:103B1000CE9EA50194010E94D86B8F8781110EC0A3
:103B2000E5CF84918F010F5F1F4F882309F452C1A5
:103B30000BD9F801F6CF1B861A8621CFAA85BB8543
:103B4000AB2B09F0BCC00E94264080E00E94D81434
:103B500081E00E94E612882309F45ACE812F0E9448
:103B6000D81438C10E942915B0923103A0923003B5
:103B70009092330380923203509235034092340383
:103B8000709237036092360310E0A6CE85E40E945F
:103B9000C615A8CE6A2FAA0F770B880B990B0E9427
:103BA000CE9E2A8D3B8D4C8D5D8D0E942D9F2E8942
:103BB0003F89488D598D0E940EA32B013C016AA1BB
:103BC0007BA18CA19DA10E94CE9EA70196010E947F
:103BD0002D9F2A893B894C895D890E940EA34B0148
:103BE0005C0120E030E0A901C301B2010E94C89E3F
:103BF00087FF04C060E070E0CB0104C060E070E0CB
:103C000080E09FE3A30192010E940EA30E9483A47F
:103C100069837A838B839C8320E030E0A901C5010E
:103C2000B4010E94C89E87FF04C060E070E0CB0131
:103C300004C060E070E080E09FE3A50194010E9471
:103C40000EA30E9483A46D837E838F8398872A8529
:103C50004989BE016B5F7F4FCE0101960E94B6730A
:103C60004B015C019B01AC010E94BAA5882321F0A5
:103C7000812F0E94D81464CE25E03985320380015B
:103C80001124020D131D000F111F000F111F095FDA
:103C90001B4F2E8D3F8D48A159A1C501B4010E9433
:103CA0000EA3D8016D937D938D939C9313970E94DF
:103CB000D32BBE85E985BE0FB98710E030CEE4E393
:103CC000F8E084915F01BFEFAB1ABB0A882319F0BB
:103CD0003BD8F501F6CFEC85EE2361F0EAE2F8E09F
:103CE00084915F012FEFA21AB20A882319F02CD811
:103CF000F501F6CF8AE028D826CFB1E0B98BF6CD12
:103D0000A5019401C501B4010E94BAA5811120CE7C
:103D10002C852223F9F0A4DB0E94E1103C853111AF
:103D200041C08FE29EE00E94F5539B01AC0160917F
:103D3000370E7091380E8091390E90913A0E0E9494
:103D40000DA36093370E7093380E8093390E9093C5
:103D50003A0E29C002E094E0E92E82E0F82EDE2C33
:103D6000D01ACE2CCF1821E041E06F2D802F0E9479
:103D7000F99821E04FEF6F2D8D2D0E94F9982FEFCC
:103D800041E06C2D802F0E94F9982FEF4FEF6C2DA2
:103D90008D2D0E94F998FA948FEFF812E2CF01501E
:103DA000E0F6B9CF1F879F859093470ED1CDE88964
:103DB000EE2349F0F1E0FE8725E02D8719863FEFDD
:103DC000231A330A9FCDFFEFFE872FEF2D8734E0B4
:103DD0003987F5CFA5960FB6F894DEBF0FBECDBFDD
:103DE000DF91CF911F910F91FF90EF90DF90CF90D7
:103DF000BF90AF909F908F907F906F905F904F900B
:103E00003F902F9008951F920F920FB60F9211249A
:103E10000BB60F922F938F939F93EF93FF93209165
:103E2000D807E091D70781E08E0F8F779091C60079
:103E3000281729F0F0E0E95AF84F9083E82FE09333
:103E4000D707FF91EF919F918F912F910F900BBE0C
:103E50000F900FBE0F901F9018952F923F924F9288
:103E60005F926F927F928F929F92AF92BF92CF920A
:103E7000DF92EF92FF920F931F93CF93DF93CDB713
:103E8000DEB766970FB6F894DEBF0FBECDBFF894CD
:103E90008FEF9FEF9093890080938800BAE0DB2E2C
:103EA000212C312C78948091C0069091C106A0916C
:103EB000C206B091C306892B8A2B8B2B09F0D7C180
:103EC0008091EE0E8823D1F01092EE0E8091EC0ED0
:103ED0009091ED0E892B91F0109280061092ED0ECC
:103EE0001092EC0E9091560E8091570E981731F06B
:103EF0008091570E8F5F8F708093570E8091EC0EDC
:103F00009091ED0E892B09F4B2C10091BC0610917D
:103F1000BD062091BE063091BF068091B8069091F3
:103F2000B906A091BA06B091BB064091AE0650E02A
:103F300060E070E0801B910BA20BB30B4817590790
:103F40006A077B0710F4DB01CA01482F800F911F1D
:103F5000A21FB31F8093BC069093BD06A093BE061C
:103F6000B093BF0680918400909185004E9680901A
:103F7000950690909606A0909706B09098060091AE
:103F80008506109186062091870630918806080DD7
:103F9000191D2A1D3B1D009395061093960620932C
:103FA00097063093980637FD1CC0889A0091380315
:103FB0001091390320913A0330913B0380900F0216
:103FC000082C000C9908AA08BB08080D191D2A1D09
:103FD0003B1D009338031093390320933A03309329
:103FE0003B038090990690909A06A0909B06B09013
:103FF0009C060091890610918A0620918B063091CB
:104000008C06080D191D2A1D3B1D0093990610935F
:104010009A0620939B0630939C0637FD1CC08E9A0F
:1040200000913C0310913D0320913E0330913F03EA
:1040300080901002082C000C9908AA08BB08080DF3
:10404000191D2A1D3B1D00933C0310933D03209333
:104050003E0330933F0380909D0690909E06A09073
:104060009F06B090A00600918D0610918E062091BB
:104070008F0630919006080D191D2A1D3B1D0093D7
:104080009D0610939E0620939F063093A00637FD51
:1040900022C020910B012095287020930901419A9C
:1040A000009140031091410320914203309143035A
:1040B00080901102082C000C9908AA08BB08080D72
:1040C000191D2A1D3B1D00934003109341032093AB
:1040D0004203309343038090A1069090A206A090E3
:1040E000A306B090A406009191061091920620912B
:1040F000930630919406080D191D2A1D3B1D00934F
:10410000A1061093A2062093A3063093A40637FDC0
:104110001CC0149A0091440310914503209146035A
:104120003091470380901202082C000C9908AA08CD
:10413000BB08080D191D2A1D3B1D00934403109355
:104140004503209346033093470320918400309128
:10415000850028173907C8F3009195061091960637
:10416000209197063091980637FD15C08090810602
:1041700090908206A0908306B090840608191909D1
:104180002A093B09009395061093960620939706FB
:104190003093980688980091990610919A0620917C
:1041A0009B0630919C0637FD15C08090810690904B
:1041B0008206A0908306B0908406081919092A097E
:1041C0003B090093990610939A0620939B0630931F
:1041D0009C068E9800919D0610919E0620919F0648
:1041E0003091A00637FD1AC080908106909082061B
:1041F000A0908306B0908406081919092A093B0982
:1042000000939D0610939E0620939F063093A00670
:1042100020910B0128702093090141980091A1067B
:104220001091A2062091A3063091A40637FD15C077
:104230008090810690908206A0908306B0908406BC
:10424000081919092A093B090093A1061093A2062F
:104250002093A3063093A4061498415041F0209176
:1042600084003091850028173907C8F37FCE8091EC
:10427000C0069091C106A091C206B091C306892BD9
:104280008A2B8B2B09F029C6E091EC0EF091ED0EF4
:10429000309709F4B0C78091BC069091BD06A091FB
:1042A000BE06B091BF064091B8065091B906609124
:1042B000BA067091BB0684179507A607B707D0F01A
:1042C000109280061092ED0E1092EC0E9091560E08
:1042D0008091570E981709F48EC78091570E8F5F03
:1042E0008F708093570EA0ED8A2EA7E09A2EA12CF6
:1042F000B12CF9C34091B4065091B5066091B60651
:104300007091B706481759076A077B0708F4A2C1DE
:104310004090B0065090B1066090B2067090B3061F
:1043200086A997A9A0ADB1AD481659066A067B06C5
:1043300008F073C1411451046104710449F480917F
:104340007C0690917D06A0917E06B0917F0669C1A2
:10435000B0E0AC2D842D352D262DF981EA817B81AD
:104360006C815D814E819F815091E90D589F712D27
:1043700066274091EA0D489F700D611D1090EB0D6E
:10438000189E600D539F700D611D439F600D529FDD
:10439000600DF72FE62FF79F512D44279927F69FA1
:1043A000500D411D9B1FE79F500D411D9B1FE69F18
:1043B000400D911DF42FE92FF79FA12D4427992738
:1043C000F69FA00D411D9B1FE79FA00D411D9B1F48
:1043D000E69F400D911DF42FE92F552780917C0613
:1043E00030917D0620917E0600900C060B2A09F480
:1043F00083C0409108064F9F51198B0B3B0B2B0B31
:10440000909109069F9F501981093B0B2B0BA0919E
:104410000A06AF9F801931092B0B4E9F5019810955
:104420003B0B2B0B9E9F801931092B0BAE9F301934
:104430002109F79FA12D44279927F69FA00D411D23
:104440009B1FE79FA00D411D9B1FE69F400D911DE7
:10445000F42FE92F409104064F9F510D8B1F3B1FF6
:104460002B1F909105069F9F500D811D3B1F2B1FF9
:10447000A0910606AF9F800D311D2B1F4E9F500D42
:10448000811D3B1F2B1F9E9F800D311D2B1FAE9F3B
:10449000300D211DF79FA12D44279927F69FA00DD0
:1044A000411D9B1FE79FA00D411D9B1FE69F400DD7
:1044B000911DF42FE92F409100064F9F51198B0B4E
:1044C0003B0B2B0B909101069F9F501981093B0BD1
:1044D0002B0BA0910206AF9F801931092B0B4E9F29
:1044E000501981093B0B2B0B9E9F801931092B0B17
:1044F000AE9F3019210982C0409108064F9F510D8F
:104500008B1F3B1F2B1F909109069F9F500D811DF4
:104510003B1F2B1FA0910A06AF9F800D311D2B1F43
:104520004E9F500D811D3B1F2B1F9E9F800D311DE7
:104530002B1FAE9F300D211DF79FA12D44279927DA
:10454000F69FA00D411D9B1FE79FA00D411D9B1FC6
:10455000E69F400D911DF42FE92F409104064F9FD7
:1045600051198B0B3B0B2B0B909105069F9F5019FC
:1045700081093B0B2B0BA0910606AF9F80193109D7
:104580002B0B4E9F501981093B0B2B0B9E9F8019C3
:1045900031092B0BAE9F30192109F79FA12D44271C
:1045A0009927F69FA00D411D9B1FE79FA00D411D60
:1045B0009B1FE69F400D911DF42FE92F40910006AF
:1045C0004F9F510D8B1F3B1F2B1F909101069F9FEB
:1045D000500D811D3B1F2B1FA0910206AF9F800D28
:1045E000311D2B1F4E9F500D811D3B1F2B1F9E9F6A
:1045F000800D311D2B1FAE9F300D211D1124CA2EA1
:10460000F983EA837B836C835D834E839F8390E091
:10461000932BA0E0B0E0A22B04C082A993A9A4A987
:10462000B5A90090AF0604C0880F991FAA1FBB1F31
:104630000A94D2F72DEA30E141E0488BF901459127
:10464000559165917491481759076A077B0708F4DB
:1046500093C4A0C44091AA065091AB066091AC06E9
:104660007091AD06481759076A077B0708F0C5C166
:104670008091A90681111FC0DF01AE5BBF4FED9095
:10468000FD900D911C9113971D962D913D914D918B
:104690005C9162A973A984A995A90E940A5F81E02F
:1046A0008093A906E091EC0EF091ED0E42A853A87C
:1046B00064A875A88AC18091A5069091A606A091CC
:1046C000A706B091A80642AD53AD64AD75AD841791
:1046D0009507A607B70708F072C10097A105B105B5
:1046E00049F440907C0650907D0660907E06709064
:1046F0007F066BC150E06885482E292F8A2FA98537
:10470000FA85EB857C854D853E859F854091E90D39
:10471000449DE12D77273091EA0D349DE00D711D08
:104720001090EB0D149C700D429FE00D711D329F97
:10473000700D489F700DAE2FF72FAE9F412D332780
:104740009927A79F400D311D951FFE9F400D311DDC
:10475000951FF79F300D911DA32FF92FAE9F612D4F
:1047600033279927A79F600D311D951FFE9F600D70
:10477000311D951FF79F300D911DA32FF92F442751
:1047800040907C0620917D0680917E0600900C066C
:10479000052A09F483C0309108063A9F4119450A59
:1047A000250B850B909109069A9F40194108250B0E
:1047B000850B60910A066A9F40182109850B3F9F6F
:1047C00040194108250B850B9F9F40182109850B37
:1047D0006F9F20198109AE9F612D33279927A79FCD
:1047E000600D311D951FFE9F600D311D951FF79FB8
:1047F000300D911DA32FF92F309104063A9F410DE2
:10480000451E251F851F909105069A9F400D411C4E
:10481000251F851F609106066A9F400C211D851F7C
:104820003F9F400D411C251F851F9F9F400C211D50
:10483000851F6F9F200D811DAE9F612D3327992706
:10484000A79F600D311D951FFE9F600D311D951FA7
:10485000F79F300D911DA32FF92F309100063A9F3D
:104860004119450A250B850B909101069A9F401925
:104870004108250B850B609102066A9F40182109AB
:10488000850B3F9F40194108250B850B9F9F4018C2
:104890002109850B6F9F2019810982C0309108067C
:1048A0003A9F410D451E251F851F909109069A9F2D
:1048B000400D411C251F851F60910A066A9F400C10
:1048C000211D851F3F9F400D411C251F851F9F9F58
:1048D000400C211D851F6F9F200D811DAE9F612DF6
:1048E00033279927A79F600D311D951FFE9F600DEF
:1048F000311D951FF79F300D911DA32FF92F30917A
:1049000004063A9F4119450A250B850B909105062F
:104910009A9F40194108250B850B609106066A9FF6
:1049200040182109850B3F9F40194108250B850B35
:104930009F9F40182109850B6F9F20198109AE9F09
:10494000612D33279927A79F600D311D951FFE9F6D
:10495000600D311D951FF79F300D911DA32FF92F6D
:10496000309100063A9F410D451E251F851F9091ED
:1049700001069A9F400D411C251F851F609102066C
:104980006A9F400C211D851F3F9F400D411C251F24
:10499000851F9F9F400C211D851F6F9F200D811D2E
:1049A00011246887A987FA87EB877C874D873E8724
:1049B0009F87512C522A612C712C682A06C0E15B1A
:1049C000FF4F40805180628073800090AF0604C02A
:1049D000440C551C661C771C0A94D2F78DEA90E1B2
:1049E00021E0FC014591559165917491441555055F
:1049F0006605770508F431C33BC38091140290919A
:104A00001502A0911602B0911702B7FF64C0E95BCE
:104A1000FF4F80809180A280B3800090AF0604C0D9
:104A2000880C991CAA1CBB1C0A94D2F78DEA90E151
:104A300021E0FC0145915591659174914815590506
:104A40006A057B0550F4B694A79497948794220F37
:104A5000049630E1893C930761F72093AE0620E28B
:104A600082169104A104B10408F496C380E2881A66
:104A70009108A108B108811498E09906A104B10435
:104A800008F466C3A4E09A9EC00111248355934F95
:104A9000FC01329625913491B82D6627B39FA00171
:104AA000B29F410D561F0694461F561F112460E009
:104AB00070E0FC0125913491C901A0E0B0E0841BB5
:104AC000950BA60BB70B8093140290931502A0933D
:104AD0001602B09317028090140290901502A090D5
:104AE0001602B09017028091EC0E9091ED0E892B7A
:104AF00009F0EBC10E94975F9093ED0E8093EC0E4E
:104B0000892B09F4E2C1E091EC0EF091ED0E808169
:104B100083FF3EC085899689A789B08D809338032D
:104B200090933903A0933A03B0933B03818D928D08
:104B3000A38DB48D80933C0390933D03A0933E03DB
:104B4000B0933F03858D968DA78DB0A180934003D0
:104B500090934103A0934203B093430381A192A198
:104B6000A3A1B4A18093440390934503A09346036B
:104B7000B09347039091560E8091570E981709F401
:104B8000B9CF8091570E8F5F8F708093570EB2CF41
:104B900085889688A788B08C81E081149104A1044F
:104BA000B10409F480E0218D328D438D548D2B8B1F
:104BB0003C8B4D8B5E8B232B242B252B09F08260A5
:104BC000458D568D678D70A14115510561057105A3
:104BD00009F08460809380061092A5061092A606C4
:104BE0001092A7061092A8061092B0061092B10675
:104BF0001092B2061092B306DF01A95BBF4F8D91F0
:104C00009D910D90BC91A02DF12C893330E3930739
:104C1000A105B10560F4880F991FAA1FBB1F893336
:104C200020E39207A105B10510F4F394EECFF092C2
:104C3000AF068F2D90E09A8B898B85A196A1A7A1B5
:104C4000B0A50F2C04C0880F991FAA1FBB1F0A9480
:104C5000D2F78093B8069093B906A093BA06B093A2
:104C6000BB06442455243201481A590A6A0A7B0AB1
:104C70004092A1065092A2066092A3067092A406EA
:104C800040929D0650929E0660929F067092A006EA
:104C90004092990650929A0660929B0670929C06EA
:104CA00040929506509296066092970670929806EA
:104CB000880C991CAA1CBB1C8092850690928606C3
:104CC000A0928706B09288060B891C892D893E899F
:104CD000000F111F221F331F0093890610938A06AD
:104CE00020938B0630938C06440F551F661F771F49
:104CF00040938D0650938E0660938F0670939006B6
:104D000041A152A163A174A1440F551F661F771FD3
:104D10004093910650939206609393067093940685
:104D2000880F991FAA1FBB1F80938106909382064C
:104D3000A0938306B09384061092BC061092BD0621
:104D40001092BE061092BF0682A593A5A4A5B5A594
:104D50000F2C04C0880F991FAA1FBB1F0A94D2F7FB
:104D60008093B4069093B506A093B606B093B706A9
:104D700086A597A5A0A9B1A904C0880F991FAA1F4D
:104D8000BB1FFA94D2F78093AA069093AB06A09328
:104D9000AC06B093AD0641A5EA5BFF4F5081809110
:104DA0007B0658130AC08091130290E0242F042E32
:104DB000000C330B2817390731F050937B064093D2
:104DC00013020E945C5F0E94C44E2FEF3FEFA901C7
:104DD0002093140230931502409316025093170249
:104DE000E091EC0EF091ED0EDF01DE96ED90FD907E
:104DF0000D911C9122A933A944A955A9E55BFF4F48
:104E000060817181828193810E940A5F1092A9065C
:104E1000E091EC0EF091ED0EE55BFF4F408051808C
:104E200062807380098804C0440C551C661C771C82
:104E30000A94D2F78DEA90E121E0FC014591559169
:104E400065917491441555056605770558F4769477
:104E5000679457944794220F049649EC50E1481701
:104E6000590759F72093AE0650E2451651046104E4
:104E7000710408F4BAC130E2431A5108610871089C
:104E8000411448E054066104710408F48BC154E0F5
:104E9000559EC00111248355934FFC0132962591F4
:104EA0003491742D6627739FA001729F410D561F88
:104EB0000694461F561F1124FC0185909490A12C46
:104EC000B12C841A950AA108B1088092C00690926C
:104ED000C106A092C206B092C3068091C00690910E
:104EE000C106A091C206B091C306AC01BD010097F6
:104EF00021E0A207B10520F04FEF5FEF60E070E026
:104F0000841B950BA60BB70B8093C0069093C1062C
:104F1000A093C206B093C306F89480918400909148
:104F200085004096DA94DD2041F0240E351E2816C7
:104F3000390610F40C94521F01C01C0130928900F4
:104F400020928800789466960FB6F894DEBF0FBE64
:104F5000CDBFDF91CF911F910F91FF90EF90DF9028
:104F6000CF90BF90AF909F908F907F906F905F9009
:104F70004F903F902F900895B695A7959795879558
:104F80004889440F488B2C5F3F4F50E1293C35073F
:104F900009F054CB78897093AE0680329105A10553
:104FA000B10508F455C08097A109B109811558E0F1
:104FB0009507A105B105F0F074E0979F90011124C9
:104FC0002355334FF901329645915491EE27859F31
:104FD000B001849F610D7E1F06946E1F7E1F1124F9
:104FE000F90185909490A12CB12C861A970AA108FA
:104FF000B10821C0AC01BD017695679557954795DD
:10500000FA01EC7F9F012355374FF9018590949069
:10501000F9013296459154918770849F9001859F44
:10502000300D1124F3E036952795FA95E1F7821AB1
:10503000930AA12CB12C480C591C6A1C7B1C409271
:10504000B0065092B1066092B2067092B3064BCD94
:1050500080E290E0A0E0B0E0A6CF76946794579409
:105060004794220F0496A0E1893C9A0709F0B9CC35
:105070002093AE06B0E24B1651046104710408F4AB
:1050800061C090E2491A5108610871084114A8E012
:105090005A0661047104F8F0B4E05B9EC00111246B
:1050A0008355934FFC01329625913491742D6627D8
:1050B000739FA001729F410D561F0694461F561FF5
:1050C0001124FC0185909490A12CB12C841A950A8E
:1050D000A108B10822C0D301C201B695A795979542
:1050E0008795FC01EC7FCF018355974FFC0185909C
:1050F0009490FC01329625913491442D4770429F43
:10510000C001439F900D112463E0969587956A95A1
:10511000E1F7881A990AA12CB12C8091A5069091EB
:10512000A606A091A706B091A806880D991DAA1DF4
:10513000BB1D8093A5069093A606A093A706B093E7
:10514000A806D1CC60E2462E512C612C712C99CF4F
:10515000D501C401B695A79597958795FC01EC7F7D
:10516000CF018355974FFC0125913491FC01329674
:1051700045915491682D6770649FC001659F900DA3
:10518000112443E0969587954A95E1F7281B390B42
:10519000C901A0E0B0E097CC50E2852E912CA12C63
:1051A000B12C64CCD301C201B695A795979587958C
:1051B000FC01EC7FCF018355974FFC0185909490C3
:1051C000FC01329625913491442D4770429FC001D5
:1051D000439F900D1124A3E096958795AA95E1F73A
:1051E000881A990AA12CB12C70CE90E2492E512C2C
:1051F000612C712C40CE80ED882E87E0982EA12C5A
:10520000B12C78CCEF92FF920F931F93CF93DF9343
:105210001F921F92CDB7DEB782E08093C00010923C
:10522000C50087E08093C4008091C10080618093B5
:10523000C1008091C10088608093C1008091C1004D
:1052400080688093C100EFE9F2E184918F010F5FE4
:105250001F4F882321F00E94A416F801F6CFE9E33E
:10526000FEE184918F010F5F1F4F882321F00E9480
:10527000A416F801F6CF14B710FF0DC0E6E9F2E16D
:1052800084917F019FEFE91AF90A882321F00E9497
:10529000A416F701F5CF11FF0DC0E5E8F2E1849106
:1052A0007F019FEFE91AF90A882321F00E94A416D2
:1052B000F701F5CF12FF0DC0E3E7F2E184917F0122
:1052C0009FEFE91AF90A882321F00E94A416F7013A
:1052D000F5CF13FF0DC0E2E6F2E184917F019FEF6D
:1052E000E91AF90A882321F00E94A416F701F5CFE4
:1052F00015FF0CC0E1E5F2E184918F010F5F1F4FB4
:10530000882321F00E94A416F801F6CF14BEEAE427
:10531000F2E184918F010F5F1F4F882321F00E94DB
:10532000A416F801F6CF80E20E94A416E3E4F2E1AD
:1053300084918F010F5F1F4F882321F00E94A416D4
:10534000F801F6CF8AE00E94A416E9E3FEE1849119
:105350008F010F5F1F4F882321F00E94A416F801D0
:10536000F6CFE3E3F2E184918F010F5F1F4F8823B3
:1053700021F00E94A416F801F6CFE8E2F2E1849150
:105380008F010F5F1F4F882321F00E94A416F801A0
:10539000F6CFE8EEF1E184918F010F5F1F4F882374
:1053A00021F00E94A416F801F6CFE9E3FEE1849112
:1053B0008F010F5F1F4F882321F00E94A416F80170
:1053C000F6CFE1EDF1E184918F010F5F1F4F88234C
:1053D00021F00E94A416F801F6CFE9E3FEE18491E2
:1053E0008F010F5F1F4F882321F00E94A416F80140
:1053F000F6CF2091030F3091040FCE0101962115B5
:10540000310519F489509F4002C0821B930B9A8387
:10541000898369817A8182EC91E10E943B6160ED30
:1054200075E08BEA91E10E943B618AE00E94A4163C
:1054300081E080936C0480936D0480936E0480936C
:105440006F040E9430738CE0E7ECF3E0AFE2BEE063
:1054500001900D928A95E1F70E94C313249A8091DE
:105460000101806280930101809101018064809339
:10547000010187ED80937A0010927E0010927D00EA
:1054800080917D00806280937D0080917D008064AA
:1054900080937D0080E888BD80916E008460809359
:1054A0006E00809101018061809301016AEF70E0DC
:1054B00080E090E00E94917785E090E09093F30681
:1054C0008093F20660E080911C0290911D020E9480
:1054D0007F4120E030E040EA50E40E94C89E87FF10
:1054E0000AC080911C0290911D02409790931D026A
:1054F00080931C02E7CF83E191E09093190280939F
:10550000180260E08091F7069091F8060E947F41B2
:1055100020E030E849E853E40E9434A5181654F41A
:105520008091F7069091F80640969093F806809344
:10553000F706E7CF80911A0290911B020E948943DF
:1055400020E030E040EA50E40E94C89E87FF0AC095
:1055500080911A0290911B02409790931B028093B6
:105560001A02E8CF8091F5069091F6060E948943D1
:1055700020E030E046E153E40E9434A5181654F4CC
:105580008091F5069091F60640969093F6068093EA
:10559000F506E8CF0E947B836D98759A809104018F
:1055A0008D7F8093040180910501809582708093A6
:1055B000030152985A9A1092950310929403819A7B
:1055C000879A80910A01826080930A013B9A0E9A21
:1055D0003B9A579A5F9A829A8A9A809107018160D2
:1055E0008093070180910801809581708093060166
:1055F0003F9A479A0A9A129A3F9A479A809A8898AD
:105600005F9A8091040E8E7F8093040E869A8E9806
:105610008A9A8091040E8D7F8093040E399A419866
:1056200080910A01886080930A0180910B01887043
:105630008093090180910801809581708093060113
:10564000479A8091040E8B7F8093040E0C9A1498D5
:10565000129A809180008C7F8093800080918100DD
:10566000877E886080938100809180008F73809313
:10567000800080918100887F82608093810080E03B
:1056800090E4909389008093880010928500109296
:10569000840080916F00826080936F0081E080932E
:1056A000950378940E945C5F6BE070E089EE9EE069
:1056B0000E945178E091E90EF0E0CF01880F991F28
:1056C000E80FF91FE458F14F80818F7B80836AE5F2
:1056D00070E089EE9EE00E94CC5F1092520780EA53
:1056E00090E00E944E1180E00E94AB1698E288E1A3
:1056F0000FB6F894A895809360000FBE9093600059
:105700000F900F90DF91CF911F910F91FF90EF902D
:1057100008955F9A8091040E8E7F8093040E8A9A7A
:105720008091040E8D7F8093040E809108018095F6
:10573000817080930601479A8091040E8B7F80933D
:10574000040E129A0895EFE3FEE18491EF01219691
:10575000882321F00E94A416FE01F7CFEBE8F1E1C7
:105760008491EF012196882321F00E94A416FE0166
:10577000F7CF0E946543CDDF2FEF8BE49DE12150F1
:1057800080409040E1F700C00000F8942FEF84E3E0
:105790009CE0215080409040E1F700C000000E9452
:1057A0006543A895FECF2F923F924F925F926F92E2
:1057B0007F928F929F92AF92BF92CF92DF92EF92A1
:1057C000FF920F931F93CF93DF9300D01F92CDB71B
:1057D000DEB70E94C9776B017C01809100028823AB
:1057E00009F47BC080917504882309F476C0409148
:1057F000D5065091D6066091D7067091D8069701CC
:105800008601041B150B260B370B37FD79C083303F
:1058100051F134F481300CF460C0E9E3FEE106C0DC
:10582000843009F05AC0E9E3FEE13BC084918F0166
:105830000F5F1F4F1B830A83882329F00E94A41641
:10584000EA81FB81F3CFE6E3F1E184918F010F5F01
:105850001F4F1B830A83882309F43FC00E94A416AC
:10586000EA81FB81F2CFE9E3FEE184918F010F5FD2
:105870001F4F1B830A83882329F00E94A416EA8104
:10588000FB81F3CFEFE1F1E184918F010F5F1F4FB7
:105890001B830A83882309F10E94A416EA81FB81F5
:1058A000F3CF84918F010F5F1F4F1B830A838823DF
:1058B00029F00E94A416EA81FB81F3CFE7E0F1E131
:1058C00084918F010F5F1F4F1B830A83882329F068
:1058D0000E94A416EA81FB81F3CF2091000230E000
:1058E000A8EEB3E00E94FEA2C60ED71EE81EF91E67
:1058F000C092D506D092D606E092D706F092D8068E
:105900008091F905843030F40E948A18811102C018
:105910000E9457170E94C977C0906403D090650316
:10592000E0906603F0906703C114D104E104F10430
:1059300089F10091C4061091C5062091C6063091E8
:10594000C7060C0D1D1D2E1D3F1D6B017C01C01ACD
:10595000D10AE20AF30AF7FC1DC0EFE3FEE18491ED
:105960008F010F5F1F4F1B830A83882329F00E943A
:10597000A416EA81FB81F3CF6091020E7091030EB1
:1059800081E591E10E9454618AE00E94A41688E4B6
:1059900091E1D9DEC0900102D0900202E0900302B2
:1059A000F0900402C114D104E104F104E1F130915A
:1059B000560E2091570E321749F06093C40670932B
:1059C000C5068093C6069093C7062DC00091C406F5
:1059D0001091C5062091C6063091C7060C0D1D1DFD
:1059E0002E1D3F1DDC01CB01801B910BA20BB30BC5
:1059F000B7FD19C05F9A8091040E8E7F8093040ECC
:105A00008A9A8091040E8D7F8093040E8091080104
:105A10008095817080930601479A8091040E8B7F58
:105A20008093040E129A9091560E8091570E9817FB
:105A300091F0E091570E1DE5E19FF0011124E0592E
:105A4000F74F60818091570E9091560E981729F06C
:105A50008F5F8F70F9CF6091620370E089E00E94E0
:105A600068768091F406882309F4FBC00091330224
:105A700010913402C0903502CC82D0903602DA8286
:105A80006091590370915A036E5F7F4F072E000C8F
:105A9000880B990B0E94CE9E9801A6010E94C89E79
:105AA00087FDDFC0F090570E212C312CE12C19829C
:105AB0008091560E8F1509F460C08F2D90E02DE572
:105AC000289FF001299FF00D1124E75EF74F4589CB
:105AD00056896789708D452B462B472B81F4418D64
